S01900005472616E736D697373696F6E2044656D6F2E737265635C
S113000071C000008EC000008CC000008AC00000D7
S113001088C0000086C0000084C0000082C00000C8
S113002080C000007EC000007CC000007AC00000D8
S113003078C0000076C0000074C0000072C00000E8
S113004070C000006EC000006CC000006AC00000F8
S113005068C0000066C0000064C0000062C0000008
S113006060C00000E7C100005CC00000B7C1000030
S113007058C0000056C0000054C0000052C0000028
S113008050C000004EC000004CC000004AC0000038
S1130090B8C2000046C0000088C2000042C0000090
S11300A040C000003EC000003CC000003AC0000058
S11300B038C0000036C0000034C0000032C0000068
S11300C030C000002EC000002CC000002AC0000078
S11300D028C0000026C0000024C0000022C0000088
S11300E020C0000011241FBECFEFD1E2DEBFCDBF80
S11300F000E00CBF12E0A0E0B2E0EEE4FBE000E0C0
S11301000BBF02C007900D92AE33B107D9F722E0BE
S1130110AEE3B2E001C01D92A63CB207E1F702D003
S113012014C56ECFCF93DF93CDB7DEB768970FB604
S1130130F894DEBF0FBECDBF20E041E060E875E279
S113014080E090E039D010D480E092E0B6D027D49B
S113015088E192E0B2D00F2EF6E6DF2EF02DE12CEE
S11301600F2EF8E1FF2EF02D8D2D9E2D0197F1F726
S1130170CE0101960BD4FE013196A6E9B2E08F2D93
S113018001900D928A95E1F706E912E0F801608981
S11301907189828993890FD4CB01A4D08CE280D059
S11301A0F801648575858685978505D4CB019AD039
S11301B085E192E082D0D8CFCF92DF92EF92FF9286
S11301C00F931F93CF93DF936B017C01D42FC22F26
S11301D060E472E48FE090E0A70196017ED4890187
S11301E09A010150110921093109C801012E000C9D
S11301F0AA0BBB0BB901A801481B590B6A0B7B0B5B
S1130200DB01CA01880F991FAA1FBB1F6C017D0166
S1130210CC0CDD1CEE1CFF1CCC0CDD1CEE1CFF1CEE
S11302208C0D9D1DAE1DBF1D61E070E00597A105FD
S1130230B10510F460E070E09B01200F311F309392
S1130240C5002093C400DD2329F0E1ECF0E08081B7
S113025088608083CC2329F0E1ECF0E08081806128
S11302608083E2ECF0E08081877C8083A1ECB0E0C5
S11302708C918B7F8C9380818660808310923E0268
S1130280109241021092420281E080934002DF9179
S1130290CF911F910F91FF90EF90DF90CF90089531
S11302A0E0ECF0E0908195FFFDCF8093C6000895C7
S11302B08AE0F6DF8DE0F4CF0895CF93DF93FC015D
S11302C02081222361F0EC0188818A3011F4F0DF6F
S11302D002C08881E5DF219688818111F5CFDF9105
S11302E0CF9108950F931F93CF93DF93AC019C019B
S11302F0329522952F7023273F702327A7E4B3E07C
S11303000ED4FC01F695E795F695E795F695E795F5
S1130310CE2FCC0F8C2F880F880FC80F9A013695DB
S113032027953695279536952795A5ECB0E2F7D312
S1130330929582958F7089279F708927182F1C1B8F
S11303409A013695279536952795ABE7B4E1E7D31F
S11303509C0136952795022F84E6E89F0019112405
S1130360812F880F982F990F990F980F091B64E616
S1130370629FC001639F900D1124481B590BDDEC53
S11303804D9FD12D1124D695D695D6958D2F880FB6
S1130390982F990F990F980FC42FC91BEE2321F0A2
S11303A080E38E0F7DDF02C0112381F080E3810F93
S11303B077DF80E3800F74DF02C0DD2319F080E370
S11303C08D0F6EDF80E38C0F6BDF03C00023A9F376
S11303D0F0CFDF91CF911F910F9108951F920F924B
S11303E00FB60F9211240BB60F928F93EF93FF93D6
S11303F0E0914102F0E0EE5BFD4F8081882369F0DB
S1130400E091410281E08E0F80934102F0E0EE5BC7
S1130410FD4F80818093C60003C081E08093400239
S1130420FF91EF918F910F900BBE0F900FBE0F9025
S11304301F9018951F920F920FB60F9211248F934D
S11304408091C60080933F0281E080933E028F91A9
S11304500F900FBE0F901F901895CF92DF92EF92DE
S1130460FF920F931F93CF93DF936B017C01D42FE3
S1130470C22F60E472E48FE090E0A70196012DD3CF
S113048089019A010150110921093109C801012E7C
S1130490000CAA0BBB0BB901A801481B590B6A0B32
S11304A07B0BDB01CA01880F991FAA1FBB1F6C01BC
S11304B07D01CC0CDD1CEE1CFF1CCC0CDD1CEE1CE9
S11304C0FF1C8C0D9D1DAE1DBF1D61E070E00597E6
S11304D0A105B10510F460E070E09B01200F311F0D
S11304E03093CD002093CC00DD2329F0E9ECF0E03B
S11304F0808188608083CC2329F0E9ECF0E080815E
S113050080618083EAECF0E08081877C8083A9ECC1
S1130510B0E08C918B7F8C93808186608083109275
S11305206202109265021092660281E08093640276
S1130530DF91CF911F910F91FF90EF90DF90CF90BB
S11305400895EF920F9389DF002331F0E9ECF0E096
S11305508081806480837894EE2031F0E9ECF0E0CF
S113056080818068808378940F91EF9008959093B0
S11305706102809360020895209164022223A1F015
S1130580BC0186E692E0DAD210926502E09165023F
S113059081E08E0F80936502F0E0EA59FD4F80817F
S11305A08093CE001092640208951F920F920FB6AA
S11305B00F9211240BB60F928F93EF93FF93E09158
S11305C06502F0E0EA59FD4F8081882369F0E091EB
S11305D0650281E08E0F80936502F0E0EA59FD4FD9
S11305E080818093CE0003C081E080936402FF91F8
S11305F0EF918F910F900BBE0F900FBE0F901F9035
S113060018951F920F920FB60F9211240BB60F92EA
S11306102F933F934F935F936F937F938F939F9306
S1130620AF93BF93EF93FF938091CE0080936302C7
S113063081E080936202E0916002F0916102809116
S113064063021995FF91EF91BF91AF919F918F91A3
S11306507F916F915F914F913F912F910F900BBEBE
S11306600F900FBE0F901F9018950F931F93CF9369
S1130670DF932091920230919302A9014F5F5F4F63
S11306805093930240939202F901E857FD4F8083FF
S11306908B3309F064C143305105C4F48091940252
S11306A090919502892B09F053C181E090E09093D9
S11306B09502809394028DE292E05EDF85E292E0FF
S11306C0FCDD109293021092920249C1809194022F
S11306D0909195028130910509F030C14430510563
S11306E00CF428C130939302209392022091890242
S11306F02C3249F48091880290E0C097909387024D
S11307008093860251C040918A024C32D1F44091C8
S1130710880250E040535109CA01880F991F440FC1
S1130720551F440F551F440F551F480F591F822F43
S113073090E0C097840F951F909387028093860260
S113074033C080918B028C3241F56091880270E055
S11307506053710984E6869FF001879FF00D112490
S113076030E0C901C097BC01660F771F9C01220FBE
S1130770331F220F331F220F331FCB01820F931F0E
S11307808E0F9F1F242F30E020533109820F931FB7
S1130790909387028093860207C087E292E08DDD02
S11307A01092870210928602409192025091930215
S11307B0FA01EB57FD4F20812C3259F4FA01EA5724
S11307C0FD4F808190E0C0979093850280938402CE
S11307D058C0FA01EC57FD4F60816C32E1F4822F6E
S11307E090E0C0979C01220F331F880F991F880F38
S11307F0991F880F991F820F931FFA01EA57FD4F23
S1130800208130E020533109820F931F9093850299
S11308108093840236C0FA01ED57FD4F80818C32FB
S113082049F570E06053710984E6869FF001879F63
S1130830F00D112430E0C901C097BC01660F771F89
S11308409C01220F331F220F331F220F331FCB01B2
S1130850820F931F8E0F9F1FFA01EA57FD4F2081CD
S113086030E020533109820F931F909385028093C7
S1130870840207C08FE292E020DD1092850210927C
S11308808402E0919202F0919302E957FD4F808136
S11308908C3419F50091860210918702CEEAD2E0D9
S11308A0B801012E000C880B990BB3D0688B798B9F
S11308B08A8B9B8B1D8B0C8B00918402109185027B
S11308C0B801012E000C880B990BA3D06C877D878F
S11308D08E879F871F8B0E8B24C0823511F5009164
S11308E0860210918702CEEAD2E0B801012E000CF4
S11308F0880B990B8ED06C837D838E839F8319879D
S113090008870091840210918502B801012E000C21
S1130910880B990B7ED0688379838A839B831B879A
S11309200A87109287021092860210929302109204
S1130930920215C087E392E0C0DC05C0892B19F44C
S113094089E392E0BADC109293021092920207C0FB
S113095080919402909195020197A9F7BFCEDF91FF
S1130960CF911F910F910895EF920F9385E393E038
S1130970FEDDEE24E39401E021E041E060E875E26D
S113098080E090E0DEDD0F91EF90089528E1EEEA3B
S1130990F2E0DC0101900D922A95E1F7089580912F
S11309A09402909195020097F1F3019719F48BE367
S11309B092E083CC089570D088F09F5790F0B92FBF
S11309C09927B751A0F0D1F0660F771F881F991FA0
S11309D01AF0BA95C9F712C0B13081F077D0B1E0FE
S11309E0089574C0672F782F8827B85F39F0B93F0E
S11309F0CCF3869577956795B395D9F73EF49095A2
S1130A008095709561957F4F8F4F9F4F0895E8941F
S1130A1009C097FB3EF490958095709561957F4F42
S1130A208F4F9F4F9923A9F0F92F96E9BB279395F0
S1130A30F695879577956795B795F111F8CFFAF400
S1130A40BB0F11F460FF1BC06F5F7F4F8F4F9F4F31
S1130A5016C0882311F096E911C0772321F09EE88F
S1130A60872F762F05C0662371F096E8862F70E0F5
S1130A7060E02AF09A95660F771F881FDAF7880FCF
S1130A809695879597F9089557FD9058440F551FEB
S1130A9059F05F3F71F04795880F97FB991F61F0FC
S1130AA09F3F79F087950895121613061406551F73
S1130AB0F2CF4695F1DF08C0161617061806991FDF
S1130AC0F1CF86957105610508940895E894BB27D4
S1130AD066277727CB0197F90895A1E21A2EAA1B5E
S1130AE0BB1BFD010DC0AA1FBB1FEE1FFF1FA217DA
S1130AF0B307E407F50720F0A21BB30BE40BF50BD7
S1130B00661F771F881F991F1A9469F7609570955F
S1130B10809590959B01AC01BD01CF010895A29FE2
S1130B20B001B39FC001A39F700D811D1124911DBD
S1130B30B29F700D811D1124911D0895FB01DC01EC
S1110B4001900D920020E1F70895F894FFCF84
S1130B4E547279696E6720746F20436F6E6E65639D
S1130B5E742E2E2E210A0D00436F6E6E656374651E
S1130B6E64210A0D003B004572726F7220410045EC
S1110B7E72726F72204500740066005400000D
S9030000FC
