:100000000C9421190C9452190C9452190C945219F5
:100010000C9452190C9452190C9452190C945219B4
:100020000C9452190C9452190C9452190C945219A4
:100030000C9452190C9452190C9452190C94521994
:100040000C9452190C94412B0C9452190C94521983
:100050000C9452190C9452190C9452190C94B92EF8
:100060000C9452190C9452190C9452190C94521964
:100070000C9452190C9452190C9452190C94521954
:100080000C9452190C9452190C9452190C94521944
:100090000C94F02C0C9452190C94C42C0C945219FE
:1000A0000C9452190C9452190C9452190C94521924
:1000B0000C9452190C9452190C9452190C94521914
:1000C0000C9452190C9452190C9452190C94521904
:1000D0000C9452190C9452190C9452190C945219F4
:1000E0000C9452196549684957495B4961499F49D0
:1000F0006C49704976497A497E49844988498C49D6
:100100009F49924996499A4905A84CCDB2D44EB917
:100110003836A9020C50B9918688083CA6AAAA2AAA
:10012000BE000000803F1010205F000000000000B3
:1001300000000000000000000000000000000000BF
:1001400000000000000000000000000000000000AF
:1001500000000100010001000FE0010001000100AA
:10016000000000000FE0000000000000000603E4B3
:100170000FF81F1C1C2E3C4E388E398E391E3A3C0F
:100180001C7C0FF813E030000000000000000000AD
:10019000000000000000000000000000000000005F
:1001A0000CCC0CCC0CCC00000000000000000000C7
:1001B000308069004B005A00360004000D8C0B5A49
:1001C000125212D6218C0000000000000000000036
:1001D0001E1833306360634066C03DBC036602C6D0
:1001E00006C60CCC187800000000000000000000DB
:1001F00003E006600CC00DC006E000000000000037
:10020000000000000000000000000000000003E00B
:1002100000300030007001C0070007E0000000005F
:10022000000000000000000000000000000007C007
:1002300000C00380060001C000C00F800000000065
:10024000000000000000000000000000000001802D
:1002500003801FF0030003003FE0070006000E00CC
:100260000E00000000000000000000000000000080
:10027000000000300070006000000FFE0FFE000064
:1002800000C001C00180000000000000000000303C
:1002900000E000E00060006000C000C000C000009E
:1002A000000000000000000000000000000000004E
:1002B000381C1C3C1C180E301E7803C003C03FF8CD
:1002C000030007000700000000000000000000F825
:1002D00003F80300038007F00CF80E180F9803E0F2
:1002E00000F008300FF007C0000000000000000020
:1002F0000000000000000000018003C003C0018076
:1003000000000000000000000000000000000010DD
:10031000007C00FC01D003A003A003A003A001F80F
:1003200000F000400040000000000000000003C09A
:100330000FF01C381DB8399C399C399C399C1DB86C
:100340001C380FF003C0000000000000000003C0D4
:100350000FF01F381E383F3C3F3C3F3C3F3C1F38AE
:100360001FF80FF003C0000000000000000003C0F1
:100370000FF01E381D983F9C3F3C3E7C3CFC1C18F7
:100380001FF80FF003C0000000000000000003C0D1
:100390000FF01C381F983F9C3E7C3F9C3F9C1F9851
:1003A0001C380FF003C0000000000000000003C074
:1003B0000FF01F781E783D7C3D7C3B7C383C1F78DD
:1003C0001F780FF003C0000000000000000003C011
:1003D0000FF01FF81C383DFC3DFC3C7C3F3C1F38B7
:1003E0001C780FF003C0000000000000000003C0F4
:1003F0000FF01E181CF839FC383C399C399C1D98AC
:100400001C380FF003C0000000000000000003C013
:100410000FF01FF81C183FDC3FBC3F7C3EFC1CF873
:100420001FF80FF003C0000000000000000003C030
:100430000FF01C381BD839DC3C7C3F3C3BDC1BD824
:100440001C380FF003C0000000000000000003E0B3
:100450000FF81C3C19DC39CE39CE3C4E3FCE1F9CE8
:100460001C3C0FF803E0000000000000000000004A
:100470000FFC0FFC0FFC0FFC0FFC0FFC0FFC0FFC24
:100480000FFC0FFC0000000000000000000003C093
:100490000FF01C381818300C300C300C300C1818B9
:1004A0001C380FF003C000000000000000003FFCFB
:1004B000281428142814281428142FF427E424E4DA
:1004C00024E424E41FFC000000000000000000C041
:1004D000014001200210021004080808080410025C
:1004E00010023FFF000000000000000000003FFF7E
:1004F000100210020804080804080210021001206B
:10050000014000C000000000000000000004001CCA
:10051000002400C403040404180410040C0403049D
:1005200000840064001C00040000000000003FFC88
:100530003FFC300C326C32EC33CC318C33EC366C0B
:10054000360C3FFC3FFC00000000000000023FFCB6
:100550003FFC301C302C304C34CC3F8C330C330CF3
:10056000300C3FFC3FFC00000000000000000000D9
:10057000000000003FFE2806261A236226B2380E2D
:1005800030063FFE000000000000000000003FFCBD
:100590003FFC300C300C300C300C300C300C300C7C
:1005A000300C3FFC3FFC000000000000006001FC3C
:1005B0000206040008003FF808001FF808000C00BD
:1005C0000400030401F8000000000000003800707F
:1005D00000E000C00180031003E006C0008001803D
:1005E0000B000A000F800C000000000000001C60DF
:1005F00038C0188019801338327036600CCC08FC73
:1006000010183018000000000000000000000C303E
:1006100038601840188031FC33060206041C0C7048
:1006200018FC0000000000000000000000000000B6
:100630007C180C30382070600CDC0CB8F930036684
:10064000027E040C0C0C0000000000000000000002
:10065000006000E000E0000000C001C007800F0063
:100660000E000E1007F003E00000000000000190F3
:10067000027000000C601DF01F701E701CE01CE07A
:1006800038E038F0000000000000000007C018301B
:1006900030182C684C644004400448244824244802
:1006A0003398183007C000000000000003E00C1869
:1006B000180C16342632200221C2222224121414CD
:1006C000180C0C1803E0000000000000000007C038
:1006D0001830301826C846C4400440044FE42008AF
:1006E0003018183007C0000000000000000001E0D2
:1006F00003F003F002D0012000C000C00C080F3846
:1007000000C003300E18000000000000008001C08F
:1007100003E007F00FF81FFC3DDE31C621C201C027
:1007200001C001C001C001C001C0000001C001C082
:1007300001C001C001C001C021C231C63DDE1FFCA5
:100740000FF807F003E001C00080000003800700FD
:100750000E001E003C007FFEFFFE7FFE3C001E00E0
:100760000E000700038000000000000001C000E050
:1007700000700078003C7FFE7FFF7FFE003C007829
:10078000007000E001C00000000000000008001040
:10079000002000400080018033001A000E000C0091
:1007A00008000000000000000000000020003800E9
:1007B0002400230020C0202020182008203020C042
:1007C0002100260038002000000000000000003852
:1007D00000381038102C20042004200420041008B5
:1007E00010080C3003C000000000000000001C00D6
:1007F0001C001C08340820042004200420041008D5
:1008000010080C3003C000000000000000001C7045
:100810003298210821082008200810101010082004
:10082000044002800300010000000000000007F007
:10083000080813E42412240224022402241223E2CE
:100840001004080807F0000000000000000007E0A6
:10085000081017C82424242427C4248424442424CE
:100860001008081007E0000000000000000007C0AA
:100870000820101020082008200820082008101048
:1008800010100C603EF800000000000000000000A6
:100890000180028002800280030002000200060044
:1008A0000200028003800000000000000000000041
:1008B000000000000000067009880888098806709A
:1008C0000000000000000000000000000000000028
:1008D00040804080609C50A248A248A244A2429C12
:1008E000418040BE408000000000008001C0014007
:1008F00002200410000000000000000000000000C2
:1009000000000000000000000000000000000000E7
:1009100000000000000000000000000000000000D7
:100920000000000000000000FFFF00000000007C4D
:1009300000E600C600CE007C0000000000000000C1
:100940000000000000000000000000000000007C2B
:1009500000FE01C20380038003F803F807000600CD
:100960000FFC07FC00000000000000000000000079
:1009700000000330033002200660066806E807B076
:1009800004000C000C000C000000000003F8061826
:100990000C080C001FF01FF008001FE00C000C08F2
:1009A000071803F000000000000000000000000035
:1009B00000800180038007800F800F800780038004
:1009C0000180008000000000000000000000000026
:1009D00002000300038003C003E003E003C00380C0
:1009E0000300020000000000000000000000000002
:1009F0000000030007800FC01FE03FF00000000070
:100A000000000000000000000000000000000000E6
:100A1000000000003FF01FE00FC00780030000004F
:100A200000000000000000000000000000000000C6
:100A30000000021006300E701EF03FF03FF01EF076
:100A40000E70063002100000000000007FFC4382A0
:100A500043C247C24382400247C243C243C243C269
:100A600043C243C240027FFC0000000000000000BF
:100A700008400C600E700F780FFC0FFC0F780E70A2
:100A80000C600840000000000000000000000000B2
:100A900000003084318C339C37BC3FFC3FFC37BCBA
:100AA000339C318C30840000000000000000000006
:100AB0000000210C318C39CC3DEC3FFC3FFC3DEC7F
:100AC00039CC318C210C0000000000000000000037
:100AD0000CC00CC00CC00CC00CC00CC00CC00CC0B6
:100AE0000CC00CC00CC000000000000000000000A2
:100AF0000FFC0FFC0FFC0FFC0FFC0FFC0FFC0FFC9E
:100B00000FFC0FFC000000000000000000000000CF
:100B100001E007F807F80FFC0FFC0FFC0FFC07F8CB
:100B200007F801E0000000000000000008000C00D1
:100B30000E000F000FC00FC00FC00FC00FC00F007E
:100B40000E000C0008000000000000000008003843
:100B5000007801E803C803080208027802F802F0EE
:100B60001E003E003C0000000000000004201C703D
:100B70001C301C3830183018301830183870187085
:100B80001C70084000000000000000000000018010
:100B90000380038003000200020002000200030041
:100BA00003800380018000000000000006001C1884
:100BB0003820343A6E7CE77043E001C003E00770F0
:100BC0001E382C1C040E18040000030007800FC000
:100BD0001FE03FF07FF8FFFCFFFC7FF83FF01FE0D5
:100BE0000FC00780030000000000000000000000AC
:100BF0000000000006700FF83FFE1C1C0FF803E019
:100C0000000000000000000000000000000003E001
:100C10000C18180C13C422222222222223C22202E0
:100C200012041A0C0C1803E0000000000000000081
:100C300003FC1FFE1FFF3FFF3FFF3FFF1FFF0FFF94
:100C40001FF81C0038000000000000000200010036
:100C500001C000E020E030E0BFFF30E020E000E035
:100C6000018001C0030000000000000000007800C7
:100C70004E00B500BAC089B0784826381994066489
:100C800001A2007E00000000000000000180018041
:100C900001800FF00FF00180018001800180018050
:100CA0000180018000000000000000000000000042
:100CB000C00078003F001FE00FFC080E107023807A
:100CC0004C00F000000000000000000000000000E8
:100CD0007000500F787C07E0038007E0787C500FAD
:100CE000700000000000000000000000008000C054
:100CF00000C001E0033007381E1E20031F3C0330F4
:100D000001A000C000C0008000001010205F0000A3
:100D100000000000000000000000000000000000D3
:100D200000000000000000000000000000000000C3
:100D3000000003000300030003000300030003009E
:100D40000300030000000300030000000000000097
:100D500000000660066006600660000000000000FB
:100D60000000000000000000000000000000000083
:100D700000000360036006C03FF03FF006C00D8036
:100D80003FF03FF00D801B001B0000000000000042
:100D90000100038007C00D600D000F00078003C035
:100DA00001E00D600D6007C003800100000000003D
:100DB00000003C1866306630666066C03CC0019E2C
:100DC00001B30333033306330C1E000000000000A0
:100DD000000007C00FE00C600C6007C007800D909A
:100DE00019D818F018780FFC0788000000000000E0
:100DF00000000180018001800180000000000000EF
:100E000000000000000000000000000000000000E2
:100E1000018003000300060006000600060006002D
:100E2000060006000300030001800000000000002F
:100E30000600030003000180018001800180018021
:100E40000180018003000300060000000000000094
:100E50000000000000000380038033983FF807C0C3
:100E600007C00EE01C7004400000000000000000FD
:100E7000000000000000000000C000C000C007F833
:100E800007F800C000C000C0000000000000000023
:100E90000000000000000000000000000000000052
:100EA0000000030003000100010002000000000038
:100EB000000000000000000000000000000003E04F
:100EC00003E000000000000000000000000000003F
:100ED0000000000000000000000000000000000012
:100EE00000000000030003000000000000000000FC
:100EF00000000060006000C000C000C000C00180B1
:100F00000180018001800300030000000000000058
:100F1000000003C007E00E700C300C300C300C30B9
:100F20000C300C300E7007E003C000000000000021
:100F300000000180038007800D800980018001800E
:100F4000018001800180018001800000000000001C
:100F5000000003C007E00E300C300030006000E0FD
:100F600001C0038006000FF00FF000000000000039
:100F7000000003E007F00E30003001E001E00070F7
:100F800000300C300E7007E003C0000000000000CD
:100F90000000006000E000E001E003600360066024
:100FA0000C600FF00FF00060006000000000000017
:100FB000000007E007E006000C000FC00FE00C7017
:100FC00000300C300E7007E003C00000000000008D
:100FD000000003E007F006300C000DC00FE00E70BB
:100FE0000C300C30063007E003C0000000000000A9
:100FF00000000FF00FF0006000C000C00180018011
:1010000001800380030003000300000000000000D3
:10101000000003C007E00C300C300C3007E007E0A4
:101020000C300C300C3007E003C000000000000062
:10103000000003C007E00C600C300C300E7007F0AD
:1010400003B000300C600FE007C00000000000009B
:10105000000000000180018000000000000000008E
:10106000000001800180000000000000000000007E
:10107000000000000180018000000000000000006E
:10108000000001800180008000800100000000005D
:10109000000000000000002000E003C00F001C0062
:1010A0000F0003C000E0002000000000000000006E
:1010B0000000000000001FF01FF0000000001FF003
:1010C0001FF0000000000000000000000000000011
:1010D00000000000000008000E00078001E0007022
:1010E00001E007800E000800000000000000000082
:1010F000000003C007E00E300C30007000E001C0BB
:1011000001800180000001800180000000000000DB
:1011100007C00C30137817E82CC82CC82CC82FD067
:1011200026E01008081007E00000000000000000A2
:1011300000000380038006C006C006C00C600C607F
:101140000FE01FF0183018303018000000000000C9
:1011500000001FE01FF01830183018301FE01FF09B
:101160001818181818181FF01FE0000000000000E1
:10117000000003E00FF00C381C10180018001800D5
:1011800018001C100C380FF003E0000000000000F5
:1011900000001FC01FF01830181818181818181859
:1011A0001818181818301FF01FC0000000000000A9
:1011B00000000FF80FF80C000C000C000FF80FF8EF
:1011C0000C000C000C000FF80FF8000000000000ED
:1011D00000000FF00FF00C000C000C000FE00FE00F
:1011E0000C000C000C000C000C00000000000000C3
:1011F000000007E01FF0183838103000300030F8D9
:1012000030F8381818381FF807E000000000000018
:101210000000181818181818181818181FF81FF8B0
:1012200018181818181818181818000000000000CE
:101230000000018001800180018001800180018027
:101240000180018001800180018000000000000019
:10125000000000300030003000300030003000303E
:1012600000300C300E7007E003C0000000000000EA
:10127000000018181830186018C019801BC01EC054
:101280001C601870183018181818000000000000B2
:1012900000000C000C000C000C000C000C000C00FA
:1012A0000C000C000C000FF00FF00000000000001C
:1012B0000000383838383C783C78345836D836D83E
:1012C00036D8339833983398311800000000000066
:1012D000000018181C181E181E181B1819981998A9
:1012E00018D818781878183818180000000000006E
:1012F000000007C01FF018303018301830183018B0
:101300003018301818301FF007C00000000000002F
:1013100000000FE00FF00C380C180C380FF00FE045
:101320000C000C000C000C000C0000000000000081
:10133000000007C01FF0183030183018301830186F
:10134000301831B818F01FF007B000180000000086
:1013500000001FE01FF01838181818381FF01FC0C1
:1013600018E0187018301838181C00000000000031
:10137000000003E007F00E380C180F0007E001F042
:1013800000380C180E3807F003E0000000000000E1
:1013900000001FF81FF8018001800180018001809A
:1013A00001800180018001800180000000000000B8
:1013B00000001818181818181818181818181818DD
:1013C000181818181C380FF007E000000000000083
:1013D000000030181830183018300C600C600EE027
:1013E00006C006C0038003800380000000000000E8
:1013F000000031C631C631C61B6C1B6C1B6C1B6CEC
:101400001B6C0E380E380E380E380000000000003D
:10141000000018301C700C6006C007C003800380F9
:1014200007C006C00C601C701830000000000000EF
:10143000000018181C380C300660066003C00180DC
:101440000180018001800180018000000000000017
:10145000000007F807F80030006000E000C00180DD
:101460000380030006000FF80FF8000000000000E2
:1014700003C003C0030003000300030003000300D4
:10148000030003000300030003C003C000000000CA
:10149000000003000300018001800180018000C082
:1014A00000C000C000C0006000600000000000003C
:1014B00003C003C000C000C000C000C000C000C026
:1014C00000C000C000C000C003C003C00000000096
:1014D000018003C003C00660066006600C30000097
:1014E00000000000000000000000000000000000FC
:1014F00000000000000000000000000000000000EC
:101500000000000000000000FFFFFFFF00000000DF
:101510000000018000C0000000000000000000008A
:1015200000000000000000000000000000000000BB
:1015300000000000000007C00FE00C6001E007E0C1
:101540000E600C600FE007B000000000000000001B
:101550000C000C000C000DC00FE00E700C300C30B5
:101560000C300E700FE00DC0000000000000000005
:1015700000000000000003C007E00E600C000C003B
:101580000C000E6007E003C0000000000000000037
:1015900000300030003003B007F00E700C300C301B
:1015A0000C300E7007F003B00000000000000000D7
:1015B000000000000000038007C00C600FE00FE097
:1015C0000C000E6007C00380000000000000000057
:1015D00003C007C006000F800F800600060006004B
:1015E00006000600060006000000000000000000E3
:1015F0000000000007600FE01CE018601860186031
:101600001CE00FE0076018601FE00FC00000000042
:101610000C000C000C000DE00FF00E300C300C3004
:101620000C300C300C300C300000000000000000CA
:1016300000000180018000000180018001800180A4
:101640000180018001800180000000000000000096
:101650000000018001800000018001800180018084
:101660000180018001800180018007800700000067
:101670000C000C000C000C600CC00D800F800FC023
:101680000EC00CC00C600C600000000000000000E8
:101690000180018001800180018001800180018042
:1016A0000180018001800180000000000000000036
:1016B00000000000000037383FFC39CC318C318C01
:1016C000318C318C318C318C000000000000000026
:1016D0000000000000000DE00FF00E300C300C3068
:1016E0000C300C300C300C3000000000000000000A
:1016F00000000000000003C007E00E700C300C304A
:101700000C300E7007E003C0000000000000000075
:101710000000000000000DC00FE00E700C300C3017
:101720000C300E700FE00DC00C000C000C0000001F
:1017300000000000000003B007F00E700C300C3009
:101740000C300E7007F003B00030003000300000A5
:10175000000000000000037003F00380030003009A
:10176000030003000300030000000000000000006D
:1017700000000000000007C00FE00C600F0007C071
:1017800000E00C600FE007C0000000000000000057
:1017900001000300030007C007C0030003000300AB
:1017A0000300030003C001C00000000000000000AF
:1017B0000000000000000C300C300C300C300C30FD
:1017C0000C300C700FF007B00000000000000000AB
:1017D00000000000000006300630063003600360A1
:1017E000036001C001C001C0000000000000000053
:1017F00000000000000031C631C619CC1B6C1B6C08
:101800001B6C0E380E380E3800000000000000007F
:1018100000000000000006300770036001C001C036
:1018200001C00360077006300000000000000000E7
:101830000000000000000C180C1806300630036091
:10184000036003E001C001C00180078007000000C1
:1018500000000000000003F803F80030007000E012
:1018600001C0018003F803F800000000000001C07F
:1018700003C003000300030003000E000E0003007A
:10188000030003000300030003C001C00000018047
:101890000180018001800180018001800180018040
:1018A000018001800180018001800180018003802E
:1018B00003C000C000C000C000C00070007000C0C5
:1018C00000C000C000C000C003C0038000000000D2
:1018D000000007880FF808F000000000000000007A
:1018E00000000000000000000000000000002032A6
:1018F000300A000000000000000000FFFE0001FFB1
:10190000FF0003FFFF8001FFFF600CFFFEF01E00E1
:1019100001F83F0001F83F0001F83F0001F83F00E7
:1019200001F83F0001F83F0001F83F0001F83F00D7
:1019300001F83F0001F83F0001F83F0001F83F00C7
:1019400001F83F0001F83E00007838000018200040
:1019500000080000000020000000380000183E00D1
:1019600000783F0001F83F0001F83F0001F83F0018
:1019700001F83F0001F83F0001F83F0001F83F0087
:1019800001F83F0001F83F0001F83F0001F83F0077
:1019900001F83F0001F83F0001F81E0000F00CFFC5
:1019A000FE6001FFFF0003FFFF8001FFFF0000FF5B
:1019B000FE00000000000000000000000000000029
:1019C0000000000000000000000000000000000017
:1019D0000060000000F0000001F8000001F80000C5
:1019E00001F8000001F8000001F8000001F8000013
:1019F00001F8000001F8000001F8000001F8000003
:101A000001F8000001F8000001F8000001F80000F2
:101A1000007800000018000000080000000000002E
:101A200000000000001800000078000001F800002D
:101A300001F8000001F8000001F8000001F80000C2
:101A400001F8000001F8000001F8000001F80000B2
:101A500001F8000001F8000001F8000001F80000A2
:101A600001F8000000F0000000600000000000002D
:101A70000000000000000000000000000000000066
:101A80000000000000000000000000FFFE0001FF59
:101A9000FF0003FFFF8001FFFF6000FFFEF000007A
:101AA00001F8000001F8000001F8000001F8000052
:101AB00001F8000001F8000001F8000001F8000042
:101AC00001F8000001F8000001F8000001F8000032
:101AD00001F8000001F80000007801FFFE1803FF84
:101AE000FF880FFFFFE027FFFFC039FFFF003E0028
:101AF00000003F0000003F0000003F0000003F00EA
:101B000000003F0000003F0000003F0000003F00D9
:101B100000003F0000003F0000003F0000003F00C9
:101B200000003F0000003F0000001E0000000CFF0E
:101B3000FE0001FFFF0003FFFF8001FFFF0000FF29
:101B4000FE00000000000000000000000000000097
:101B5000000000FFFE0001FFFF0003FFFF8001FF08
:101B6000FF6000FFFEF0000001F8000001F8000037
:101B700001F8000001F8000001F8000001F8000081
:101B800001F8000001F8000001F8000001F8000071
:101B900001F8000001F8000001F8000001F8000061
:101BA000007801FFFE1803FFFF880FFFFFE007FF2B
:101BB000FFC001FFFF1800000078000001F80000DE
:101BC00001F8000001F8000001F8000001F8000031
:101BD00001F8000001F8000001F8000001F8000021
:101BE00001F8000001F8000001F8000001F8000011
:101BF00001F8000000F000FFFE6001FFFF0003FF9E
:101C0000FF8001FFFF0000FFFE0000000000000059
:101C100000000000000000000000000000000000C4
:101C2000000000000000000000600C0000F01E003A
:101C300001F83F0001F83F0001F83F0001F83F00C4
:101C400001F83F0001F83F0001F83F0001F83F00B4
:101C500001F83F0001F83F0001F83F0001F83F00A4
:101C600001F83F0001F83E00007839FFFE1823FF1D
:101C7000FF880FFFFFE007FFFFC001FFFF18000014
:101C80000078000001F8000001F8000001F80000F1
:101C900001F8000001F8000001F8000001F8000060
:101CA00001F8000001F8000001F8000001F8000050
:101CB00001F8000001F8000001F8000000F0000049
:101CC00000600000000000000000000000000000B4
:101CD0000000000000000000000000000000000004
:101CE000000000FFFE0001FFFF0003FFFF8001FF77
:101CF000FF000CFFFE001E0000003F0000003F0040
:101D000000003F0000003F0000003F0000003F00D7
:101D100000003F0000003F0000003F0000003F00C7
:101D200000003F0000003F0000003F0000003E00B8
:101D3000000039FFFE0023FFFF800FFFFFE007FFD9
:101D4000FFC001FFFF1800000078000001F800004C
:101D500001F8000001F8000001F8000001F800009F
:101D600001F8000001F8000001F8000001F800008F
:101D700001F8000001F8000001F8000001F800007F
:101D800001F8000000F000FFFE6001FFFF0003FF0C
:101D9000FF8001FFFF0000FFFE00000000000000C8
:101DA0000000000000000000000000FFFE0001FF36
:101DB000FF0003FFFF8001FFFF000CFFFE001E007D
:101DC00000003F0000003F0000003F0000003F0017
:101DD00000003F0000003F0000003F0000003F0007
:101DE00000003F0000003F0000003F0000003F00F7
:101DF00000003F0000003E00000039FFFE0023FF0E
:101E0000FF800FFFFFE027FFFFC039FFFF183E00F4
:101E100000783F0001F83F0001F83F0001F83F0063
:101E200001F83F0001F83F0001F83F0001F83F00D2
:101E300001F83F0001F83F0001F83F0001F83F00C2
:101E400001F83F0001F83F0001F81E0000F00CFF10
:101E5000FE6001FFFF0003FFFF8001FFFF0000FFA6
:101E6000FE00000000000000000000000000000074
:101E7000000000FFFE0001FFFF0003FFFF8001FFE5
:101E8000FF6000FFFEF0000001F8000001F8000014
:101E900001F8000001F8000001F8000001F800005E
:101EA00001F8000001F8000001F8000001F800004E
:101EB00001F8000001F8000001F8000001F800003E
:101EC000007800000018000000080000000000007A
:101ED00000000000001800000078000001F8000079
:101EE00001F8000001F8000001F8000001F800000E
:101EF00001F8000001F8000001F8000001F80000FE
:101F000001F8000001F8000001F8000001F80000ED
:101F100001F8000000F00000006000000000000078
:101F200000000000000000000000000000000000B1
:101F30000000000000000000000000FFFE0001FFA4
:101F4000FF0003FFFF8001FFFF600CFFFEF01E009B
:101F500001F83F0001F83F0001F83F0001F83F00A1
:101F600001F83F0001F83F0001F83F0001F83F0091
:101F700001F83F0001F83F0001F83F0001F83F0081
:101F800001F83F0001F83E00007839FFFE1823FFFA
:101F9000FF880FFFFFE027FFFFC039FFFF183E005B
:101FA00000783F0001F83F0001F83F0001F83F00D2
:101FB00001F83F0001F83F0001F83F0001F83F0041
:101FC00001F83F0001F83F0001F83F0001F83F0031
:101FD00001F83F0001F83F0001F81E0000F00CFF7F
:101FE000FE6001FFFF0003FFFF8001FFFF0000FF15
:101FF000FE000000000000000000000000000000E3
:10200000000000FFFE0001FFFF0003FFFF8001FF53
:10201000FF600CFFFEF01E0001F83F0001F83F00DA
:1020200001F83F0001F83F0001F83F0001F83F00D0
:1020300001F83F0001F83F0001F83F0001F83F00C0
:1020400001F83F0001F83F0001F83F0001F83E00B1
:10205000007839FFFE1823FFFF880FFFFFE007FF1E
:10206000FFC001FFFF1800000078000001F8000029
:1020700001F8000001F8000001F8000001F800007C
:1020800001F8000001F8000001F8000001F800006C
:1020900001F8000001F8000001F8000001F800005C
:1020A00001F8000000F000FFFE6001FFFF0003FFE9
:1020B000FF8001FFFF0000FFFE00000000000000A5
:1020C00000001010205F0000000000000000000071
:1020D0000000000000000000000000000000000000
:1020E0000000000000000000000007000F800F80CB
:1020F0000F800F800F80070007000000000007001E
:1021000007000700000000000E380E380E380E38A9
:102110000630000000000000000000000000000089
:1021200000000000000000000C300C300C307FFE7E
:102130007FFE0C300C300C300C307FFE7FFE0C30FC
:102140000C300C3000000000024002400FF81FF875
:102150001A401A401FF00FF8025802581FF81FF0DB
:102160000240024000000000000000000E100E308F
:102170000E7000E001C0038007000E700C70087044
:10218000000000000000000000000F00198019800E
:1021900019800F000F080F9819F818F018E019F0BF
:1021A0000F98000000000000000007000700070073
:1021B0000E00000000000000000000000000000011
:1021C0000000000000000000000000F001C00380DB
:1021D00007000E000E000E000E000700038001C075
:1021E00000F000000000000000000F00038001C0AC
:1021F00000E0007000700070007000E001C003801B
:102200000F0000000000000000000180118809900C
:1022100007E007E03FFC3FFC07E007E0099011887A
:1022200001800000000000000000000000000180AC
:10223000018001800FF00FF001800180018000001B
:10224000000000000000000000000000000000008E
:102250000000000000000000000000000700070070
:1022600007000E0000000000000000000000000059
:10227000000000001FF81FF8000000000000000030
:10228000000000000000000000000000000000004E
:102290000000000000000000000000000700070030
:1022A0000700000000000000000000020006000E11
:1022B000001C0038007000E001C0038007000E0021
:1022C0001C0000000000000000000FF01C381C780B
:1022D0001CF81CF81DB81DB81F381F381E381C38D4
:1022E0000FF000000000000000000180018003806A
:1022F0001F801F800380038003800380038003808E
:102300001FF000000000000000000FE01C701C38EF
:102310000038007000E001C0038007000E381C3850
:102320001FF800000000000000000FE01C701C38C7
:102330000038007003C003C0007000381C381C70E7
:102340000FE0000000000000000000E001E003E0FA
:1023500006E00CE018E01FF81FF800E000E000E0E5
:1023600003F800000000000000001FF81C001C0023
:102370001C001C001FE01FF0007800381C381C7087
:102380000FE0000000000000000003E007000E0066
:102390001C001C001FF01FF81C381C381C381C388F
:1023A0000FF000000000000000001FFC1C1C1C1CA3
:1023B0001C1C001C0038007000E001C0038003807A
:1023C000038000000000000000000FF01C381C38E3
:1023D0001C381F3807E007E01CF81C381C381C3874
:1023E0000FF000000000000000000FF01C381C3847
:1023F0001C381C381FF80FF800380038007000E057
:1024000007C0000000000000000000000000038082
:10241000038003800000000003800380038000002D
:102420000000000000000000000000000000038029
:102430000380038000000000038003800380070006
:102440000000000000000000007000E001C00380F8
:1024500007000E001C001C000E000700038001C0D6
:1024600000E000700000000000000000000000001C
:102470003FFC3FFC000000003FFC3FFC0000000070
:1024800000000000000000001C000E000700038098
:1024900001C000E00070007000E001C00380070090
:1024A0000E001C000000000003C00FF01E7818385A
:1024B0000038007000E001C001C00000000001C051
:1024C00001C001C0000000000FF81C1C1C1C1C1CDB
:1024D0001C1C1CFC1CFC1CFC1CFC1C001C001C0010
:1024E0001FF007F800000000000003C007E00E70B6
:1024F0001C381C381C381C381FF81C381C381C3879
:102500001C3800000000000000001FF00E380E38DC
:102510000E380E380FF00FF00E380E380E380E3819
:102520001FF0000000000000000007F00E381C380B
:102530001C001C001C001C001C001C001C380E3859
:1025400007F000000000000000001FE00E700E38D1
:102550000E380E380E380E380E380E380E380E7013
:102560001FE000000000000000001FF80E180E0819
:102570000E000E300FF00FF00E300E000E080E1889
:102580001FF800000000000000001FF80E180E08E1
:102590000E000E300FF00FF00E300E000E000E0089
:1025A0001F00000000000000000007F00E381C387B
:1025B0001C381C001C001C001CF81C381C380E3871
:1025C00007F800000000000000001C701C701C7068
:1025D0001C701C701FF01FF01C701C701C701C7095
:1025E0001C7000000000000000000FE0038003806A
:1025F00003800380038003800380038003800380C3
:102600000FE0000000000000000001FC00700070FE
:10261000007000700070007038703870387038705A
:102620000FE000000000000000001E380E380E70A1
:102630000EE00FC00F800F800FC00EE00E700E383E
:102640001E3800000000000000001F000E000E00F9
:102650000E000E000E000E000E000E080E180E38B2
:102660001FF800000000000000001C1C1E3C1F7C26
:102670001FFC1FFC1DDC1C9C1C1C1C1C1C1C1C1C93
:102680001C1C00000000000000001C1C1C1C1E1C68
:102690001F1C1F9C1DDC1CFC1C7C1C3C1C1C1C1CD3
:1026A0001C1C000000000000000003E007F00E38D2
:1026B0001C1C1C1C1C1C1C1C1C1C1C1C0E3807F08D
:1026C00003E000000000000000001FF00E380E388C
:1026D0000E380E380FF00FF00E000E000E000E0038
:1026E0001F00000000000000000003E00F780E381B
:1026F0001C1C1C1C1C1C1C1C1C7C1CFC0FF80FF83C
:10270000003800FC0000000000001FF00E380E38FA
:102710000E380E380FF00FF00E700E380E380E38DF
:102720001E3800000000000000000FF01C381C38AC
:102730001C381C000FE007F000381C381C381C380F
:102740000FF000000000000000001FFC19CC11C4B5
:1027500001C001C001C001C001C001C001C001C071
:1027600007F000000000000000001C701C701C70CE
:102770001C701C701C701C701C701C701C701C70F9
:102780000FE000000000000000001C701C701C70B6
:102790001C701C701C701C701C701C700EE007C03C
:1027A000038000000000000000001C1C1C1C1C1CFE
:1027B0001C1C1C1C1C9C1C9C1C9C0FF80FF80770FC
:1027C000077000000000000000001C701C701C70EE
:1027D0000EE007C00380038007C00EE01C701C7071
:1027E0001C7000000000000000001C701C701C70B9
:1027F0001C701C700EE007C0038003800380038000
:102800000FE000000000000000001FF81C3818381E
:10281000107000E001C0038007000E081C181C386F
:102820001FF8000000000000000007F0070007008C
:102830000700070007000700070007000700070060
:1028400007F00000000000000000100018001C004D
:102850000E000700038001C000E000700038001C7B
:102860000007000000000000000007F0007000708A
:1028700000700070007000700070007000700070D8
:1028800007F0000000000000018003C007E00E70A8
:102890001C380000000000000000000000000000E4
:1028A0000000000000000000000000000000000028
:1028B0000000000000000000000000000000000018
:1028C00000007FFF7FFF000000001C001C000700CD
:1028D00007000000000000000000000000000000F1
:1028E00000000000000000000000000000000000E8
:1028F00000000FE0007000700FF01C701C701C7066
:102900000FD800000000000000001E000E000E00A6
:102910000E000FF00E380E380E380E380E380E3806
:102920001BF000000000000000000000000000009C
:1029300000000FE01C701C701C001C001C701C7040
:102940000FE0000000000000000000F800700070C0
:1029500000700FF01C701C701C701C701C701C70C0
:102960000FD8000000000000000000000000000080
:1029700000000FE01C701C701FF01C001C701C700D
:102980000FE0000000000000000003E00770077087
:10299000070007001FE01FE007000700070007000F
:1029A0001FC0000000000000000000000000000048
:1029B00000000FD81C701C701C701C700FF007F00A
:1029C00000701C700FE0000000001E000E000E00E2
:1029D0000E000EF00F380F380E380E380E380E3845
:1029E0001E38000000000000000001C001C001C04E
:1029F00000000FC001C001C001C001C001C001C082
:102A00000FF800000000000000000070007000706F
:102A1000000003F000700070007000700070007023
:102A20001C700CF007E0000000001E000E000E00FD
:102A30000E000E380E700EE00FC00EE00E700E3855
:102A40001E3800000000000000000FC001C001C0DF
:102A500001C001C001C001C001C001C001C001C06E
:102A60000FF800000000000000000000000000005F
:102A700000001FF81C9C1C9C1C9C1C9C1C9C1C9CEF
:102A80001C9C00000000000000000000000000008E
:102A900000001FE01C701C701C701C701C701C70EF
:102AA0001C7000000000000000000000000000009A
:102AB00000000FE01C701C701C701C701C701C70DF
:102AC0000FE0000000000000000000000000000017
:102AD00000001BF00E380E380E380E380E380FF08E
:102AE0000E000E001F0000000000000000000000AB
:102AF00000001FB038E038E038E038E038E01FE090
:102B000000E000E001F00000000000000000000014
:102B100000001EF00FF80F380E000E000E000E0021
:102B20001F00000000000000000000000000000086
:102B300000000FE01C301C300F8003E0187018708C
:102B40000FE0000000000000000000000100030092
:102B500007001FF007000700070007000770077055
:102B600003E0000000000000000000000000000082
:102B700000001C701C701C701C701C701C701C7081
:102B80000FD800000000000000000000000000005E
:102B900000001C701C701C701C701C700EE007C0C4
:102BA00003800000000000000000000000000000A2
:102BB00000001C1C1C1C1C1C1C9C1C9C0FF807707F
:102BC000077000000000000000000000000000008E
:102BD00000001CE01CE00FC0078007800FC01CE055
:102BE0001CE00000000000000000000000000000E9
:102BF00000000E380E380E380E380E3807F003E09D
:102C000000E001C01F800000000000000000000084
:102C100000001FE018E011C0038007000E201C60B8
:102C20001FE0000000000000000001F803800380A6
:102C3000038007001C001C00070003800380038042
:102C400001F800000000000001C001C001C001C087
:102C500001C001C001C001C001C001C001C001C06C
:102C600001C001C00000000000001F8001C001C0C1
:102C700001C000E00038003800E001C001C001C020
:102C80001F8000000000000000001F1C3B9C39DC7E
:102C900038F8000000000000000000000000000004
:102CA000000000000000080C205F00000000000091
:102CB0000000000000000000202020202020002034
:102CC000000000285050000000000000000000003C
:102CD0002828FC2850FC50500000002078A8A06054
:102CE0003028A8F02000000048A8B05028345448EC
:102CF0000000000020505078A8A8906C0000004010
:102D000040800000000000000000000408101010C7
:102D10001010100804000040201010101010102097
:102D2000400000000020A87070A8200000000000F3
:102D3000202020F8202020000000000000000000DB
:102D40000000004040800000000000F8000000008B
:102D5000000000000000000000000040000000082B
:102D600010101020204040408000000070888888AB
:102D700088888870000000002060202020202070BB
:102D80000000000070888810204080F800000000DB
:102D9000708808300808887000000000103050501B
:102DA0009078101800000000F88080F00808887003
:102DB00000000000709080F088888870000000009B
:102DC000F8901020202020200000000070888870DB
:102DD00088888870000000007088888878084870AB
:102DE00000000000000020000000002000000000A3
:102DF00000000020000000202000000408102040F7
:102E000020100804000000000000F80000F8000096
:102E100000000040201008040810204000000000BE
:102E2000708888102020002000000000708898A87A
:102E3000A8B880780000000020203050507848CC9E
:102E400000000000F0484870484848F000000000CA
:102E5000788880808080887000000000F0484848B2
:102E6000484848F000000000F8485070504048F8CA
:102E700000000000F8485070504040E000000000A2
:102E8000384880809C88483000000000CC48487852
:102E9000484848CC00000000F8202020202020F8DE
:102EA000000000007C10101010101090E0000000D6
:102EB000EC485060505048EC00000000E0404040BA
:102EC000404044FC00000000D8D8D8D8A8A8A8A842
:102ED00000000000DC486868585848E8000000001E
:102EE000708888888888887000000000F0484870E2
:102EF000404040E0000000007088888888E89870B2
:102F000018000000F0484870504848EC00000000ED
:102F100078888060100888F000000000F8A8202061
:102F20002020207000000000CC4848484848483025
:102F300000000000CC484850503020200000000025
:102F4000A8A8A8705050505000000000D850502041
:102F5000205050D800000000D85050202020207071
:102F600000000000F8901020204048F800000038D1
:102F70002020202020202020380000404040202019
:102F80001010100800000070101010101010101019
:102F90007000002050000000000000000000000051
:102FA000000000000000000000FC00200000000005
:102FB0000000000000000000000000304838483CDD
:102FC00000000000C0404070484848700000000009
:102FD0000000003848404038000000001808083859
:102FE0004848483C00000000000000304878403865
:102FF000000000001C202078202020780000000025
:103000000000003C4830407844380000C040407028
:10301000484848EC0000000020000060202020709C
:1030200000000000100000301010101010E0000030
:10303000C040405C507048EC00000000E0202020C0
:10304000202020F800000000000000F0A8A8A8A898
:1030500000000000000000F0484848EC00000000BC
:10306000000000304848483000000000000000F038
:103070004848487040E000000000003848484838A0
:10308000081C0000000000D8604040E00000000084
:103090000000007840300878000000000020207018
:1030A0002020201800000000000000D84848483CBC
:1030B00000000000000000EC48503020000000003C
:1030C000000000A8A870505000000000000000D8C8
:1030D000502050D800000000000000EC4850302084
:1030E00020C00000000000781020207800000018A8
:1030F00010101020101010101800101010101010C8
:10310000101010101010006020202010202020200F
:10311000600040A418000000000000000000000053
:103120000A0B02090C0D0E08070304010000000041
:10313000000000000000000000000000000000008F
:10314000000000000000000000001211100000004C
:10315000000000000000000000000000000000006F
:10316000000000000102102020080810204010205C
:10317000408002010201080402010102040810203B
:103180004080804020100804020180040201804039
:1031900020100804020108040201010204081020A2
:1031A0004080010204081020408005050505070540
:1031B00008080808020202020A0A080804040404B3
:1031C00001010101010101010303030303030303DF
:1031D000040707070C0C0C0C0C0C0C0C020202026E
:1031E00006060606060606060B0B0B0B0B0B0B0B57
:1031F000000020002300260029002C002F003200B0
:103200000001000003010601090100002200250061
:1032100028002B002E0031003400020100000501BF
:1032200008010B0100002100240027002A002D00C6
:103230003000330001010000040107010A01A82B3E
:103240000D2C11241FBECFEFD1E2DEBFCDBF00E0B9
:103250000CBF14E0A0E0B2E0E0EFFBE900E00BBF40
:1032600002C007900D92A83BB107D9F72AE0A8EB5E
:10327000B4E001C01D92A63DB207E1F719E1C0E23A
:10328000D9E100E006C021970109802FFE010E94CC
:10329000584BCF31D10780E00807A9F70E94AE2E26
:1032A0000C94E74D0C940000E0911C0591E09E0FFA
:1032B00090931C05F0E0E854FB4F80838A3089F43A
:1032C00080911D0590911E05892B39F0E0911D0517
:1032D000F0911E0588EB94E019951092B8041092B5
:1032E0001C05089590931E0580931D050895EF9287
:1032F0000F93EE24E39401E021E041E060E07DE201
:1033000080E090E00E948C2C84E599E10F91EF9091
:103310000C94A22CCF92DF92EF92FF920F931F9307
:10332000CF93DF93CDB7DEB78C01EDB6FEB6FC01CF
:1033300001900020E9F7CF01801B910B01962DB77A
:103340003EB7281B390B0FB6F8943EBF0FBE2DBFFA
:103350008DB79EB701966C01B8010E949E4DF80191
:1033600001900020E9F73197E01BF10BEC0DFD1DFA
:103370008CE38183C6010E94B22C0FB6F894FEBE86
:103380000FBEEDBEDF91CF911F910F91FF90EF9097
:10339000DF90CF90089581E008950F931F93CF930E
:1033A000DF93EC012091DE092F3098F436E0239F63
:1033B000C0011124BE018152964F0E94433080917A
:1033C000DE098F5F8093DE09DF91CF911F910F910E
:1033D00008958FED99E08C010A5F1F4FB8010E949C
:1033E0004330C80103531A40B1F7BE0183E39AE0AA
:1033F000DF91CF911F910F910C9443301F93CF9386
:10340000DF93CDB7DEB7A0970FB6F894DEBF0FBE3F
:10341000CDBF182F87E0E6E0F2E0DE0111960190C3
:103420000D928A95E1F7FE01389683E1DF011D9246
:103430008A95E9F780E3810F8F831886662319F058
:1034400060EC72E002C062ED72E0CE0101960E9473
:10345000934DBE016F5F7F4FCE014B960E942F3080
:10346000CE014B969ADFCE014B960E94C42FB8E155
:103470001B02F0011124EC5DFA4F81E08283A096DB
:103480000FB6F894DEBF0FBECDBFDF91CF911F9175
:103490000895CF92DF92EF92FF920F931F93CF93F5
:1034A000DF93CDB7DEB762970FB6F894DEBF0FBEDD
:1034B000CDBF2FEF4FEF6FEF84E79AE00E94423FBE
:1034C00066EA7CE284E79AE00E942F4920E040E02F
:1034D00060E084E79AE00E94563FD12C36E0C32E8C
:1034E0008091DE09D81608F05AC0ED2CF12CCE9C44
:1034F000B001CF9C700D11246152764FFB01848185
:10350000958124E0EE0CFF1C2A95E1F7899798F449
:10351000CE0101960E94583000E010E0970140E093
:1035200050E0BE016F5F7F4F84E79AE00E94014840
:10353000CE01019630C025E230E040E050E0CE01FF
:103540000D960E946B31BE01635F7F4FCE010796DF
:103550000E94583065EE72E0CE0107960E94FB3063
:10356000BC01CE0101960E94583000E010E09701A6
:1035700040E050E0BE016F5F7F4F84E79AE00E9419
:103580000148CE0101960E94C42FCE0107960E94E9
:10359000C42FCE010D960E94C42FD394A1CF629662
:1035A0000FB6F894DEBF0FBECDBFDF91CF911F9154
:1035B0000F91FF90EF90DF90CF9008957F928F92C0
:1035C0009F92AF92BF92CF92DF92EF92FF920F93B2
:1035D0001F93CF93DF9300D000D0CDB7DEB74C015F
:1035E000762E8A0120E040E06FEF84E79AE00E94A7
:1035F000423F8FE2809F7001819FF00C1124A70150
:103600004F5F5F4F8A0121E231E060E070E084E7C4
:103610009AE00E94EB426AE07DE084E79AE00E9433
:103620002F4920E440E460E484E79AE00E94423FAE
:1036300067018FE2C80ED11CA7014E5F5F4F860164
:1036400021E231E060E070E084E79AE00E94F0411E
:103650002FEF4FEF6FEF84E79AE00E94423F20E4A4
:1036600040E460E484E79AE00E94563F6AE07DE02F
:1036700084E79AE00E942F49570181E1A80EB11C0E
:10368000B401CE0101960E94583000E010E095018F
:1036900040E050E0BE016F5F7F4F84E79AE00E94F8
:1036A0000148CE0101960E94C42F20E040E06FEF58
:1036B00084E79AE00E94423F860121E231E0A601C0
:1036C00060E070E084E79AE00E94EB420152110949
:1036D000A7014E5D5F4F23E131E06FEF70E084E7BB
:1036E0009AE00E94FA40772021F020E040E06FEF5E
:1036F00003C020E440E460E484E79AE00E94423F93
:10370000A701415E5F4F850120E131E062E071E099
:1037100084E79AE00E94F04126960FB6F894DEBF47
:103720000FBECDBFDF91CF911F910F91FF90EF9012
:10373000DF90CF90BF90AF909F908F907F90089533
:103740002F923F924F925F926F927F928F929F92B1
:10375000AF92BF92CF92DF92EF92FF920F931F939F
:10376000CF93DF9300D000D0CDB7DEB76C014B0113
:103770008A0120E040E06FEF84E79AE00E94423F38
:103780008FE2809F7001819FF00C1124A7014F5F91
:103790005F4F8A0121E231E060E070E084E79AE067
:1037A0000E94EB426AE07DE084E79AE00E942F49A4
:1037B00020E440E460E484E79AE00E94423F57013D
:1037C0008FE2A80EB11CA7014E5F5F4F850121E279
:1037D00031E060E070E084E79AE00E94F0412FEF72
:1037E0004FEF6FEF84E79AE00E94423F20E440E40D
:1037F00060E484E79AE00E94563F6AE07DE084E757
:103800009AE00E942F49B401CE0101960E945830DF
:1038100097012F5E3F4F00E010E040E050E0BE0116
:103820006F5F7F4F84E79AE00E940148CE010196C6
:103830000E94C42F20E040E06FEF84E79AE00E94EE
:10384000423F850121E231E0A50160E070E084E7BC
:103850009AE00E94EB4220E040E06FEF84E79AE0BC
:103860000E94423F270184E2480E511C37018CE040
:10387000680E711C820128E131E0A30164E071E06F
:1038800084E79AE00E94EF3F20E040E060E084E7B8
:103890009AE00E94423F470183E2880E911C570143
:1038A0008DE0A80EB11C840127E131E0A50165E09F
:1038B00071E084E79AE00E94EF3F2FEF4FEF6FEF48
:1038C00084E79AE00E94423F20E040E060E084E725
:1038D0009AE00E94563F6AE07DE084E79AE00E9409
:1038E0002F4917018FE0280E311C00E010E09101F4
:1038F00046E051E069EE72E084E79AE00E945B479F
:1039000020E040E06FEF84E79AE00E94423F8201AE
:1039100023E031E0A30166EE70E084E79AE00E94C4
:10392000EF3F20E040E060E084E79AE00E94423F01
:10393000840122E031E0A50167EE70E084E79AE0BF
:103940000E94EF3F2FEF4FEF6FEF84E79AE00E9466
:10395000423F20E040E060E084E79AE00E94563F6A
:1039600066EA7CE284E79AE00E942F49005111093F
:10397000A601DD0C660B770B80E2C82E93E0E92EE2
:10398000F12C29EE30E084E79AE00E94474820E0DD
:1039900040E06FEF84E79AE00E94423F820125EE0B
:1039A00030E0A30162ED70E084E79AE00E94EF3F0F
:1039B00020E040E060E084E79AE00E94423F84011A
:1039C00024EE30E0A50163ED70E084E79AE00E9408
:1039D000EF3F2FEF4FEF6FEF84E79AE00E94423FF7
:1039E00020E040E060E084E79AE00E94563F6AE011
:1039F0007DE084E79AE00E942F4900E010E0910109
:103A000044ED50E06BEE72E084E79AE00E945B4781
:103A100026960FB6F894DEBF0FBECDBFDF91CF91D3
:103A20001F910F91FF90EF90DF90CF90BF90AF90DC
:103A30009F908F907F906F905F904F903F902F90CE
:103A400008950F931F93CF93DF93D62F8A01409150
:103A5000DC095091DD09C8E1C49F9001C59F300D7C
:103A60001124F901EC5DFA4F11821082BC01C901E9
:103A7000895D9A4F0E9443308091DC099091DD0965
:103A8000C89FF001C99FF00D1124EC5DFA4FD1875A
:103A90001387028701969093DD098093DC09DF91FB
:103AA000CF911F910F910895CF92DF92EF92FF92E5
:103AB0000F931F93CF937B016A0189014091DC0929
:103AC0005091DD09C8E1C49F9001C59F300D1124BC
:103AD000F901EC5DFA4F41E050E051834083BC01B5
:103AE000C901805D9A4F0E9443308091DC0990911A
:103AF000DD09C89FF001C99FF00D1124EC5DFA4F5C
:103B0000F38AE28AD58AC48A178B068B0196909332
:103B1000DD098093DC09CF911F910F91FF90EF9009
:103B2000DF90CF900895EF92FF920F931F93CF9362
:103B3000DF9300D000D0CDB7DEB781E090E0909366
:103B4000D9098093D80900E010E088E1F82E80912F
:103B5000DC099091DD09081719070CF04AC00530FF
:103B600011050CF043C02091DA093091DB09200FD8
:103B7000311FF29EC001F39E900D1124FC01EC5DFB
:103B8000FA4F208131812115310571F4E184BC01A6
:103B9000695D7A4FCE0101960E945830A8016E2DC2
:103BA000CE0101960BDD1EC021303105F9F4BC01B8
:103BB000605D7A4FCE0101960E9458308091DA09FB
:103BC0009091DB09800F911FF89EF001F99EF00D96
:103BD0001124EC5DFA4FA801BE016F5F7F4F82890F
:103BE0009389AEDDCE0101960E94C42F0F5F1F4F57
:103BF000AECFD1DB882319F020E04FEF02C02FEFCA
:103C000040E060E084E79AE00E94423F04E110E077
:103C100021E930E040E050E06FEA70E084E79AE0AC
:103C20000E94EF3F01E010E021E930E040E050E089
:103C30006FEA70E084E79AE00E94F04120E040E003
:103C40006FEF84E79AE00E94423F07E710E02FE31E
:103C500031E040E050E06CE271E084E79AE00E94DD
:103C60003E410FEE10E02FE331E049E750E06CE217
:103C700071E084E79AE00E943E412FEF4FEF6FEF33
:103C800084E79AE00E94423F20E040E060E084E761
:103C90009AE00E94563F66E271E084E79AE00E9453
:103CA0002F4900E010E02CE330E04FE251E06DEEF0
:103CB00072E084E79AE00E945B4724EB30E04FE239
:103CC00051E06DED73E084E79AE00E945B4720E0ED
:103CD00040E06FEF84E79AE00E94423F02EF10E07D
:103CE00023EB30E042ED50E06AE870E084E79AE0D0
:103CF0000E943E4120E440E460E484E79AE00E94B0
:103D0000423F01EF10E022EB30E043ED50E06BE882
:103D100070E084E79AE00E94EF3F2FEF4FEF6FEFE4
:103D200084E79AE00E94423F66EA7CE284E79AE0F8
:103D30000E942F4920E440E460E484E79AE00E9476
:103D4000563F00E010E020EE30E04EE057E26FEE2C
:103D500072E084E79AE00E945B4720E040E06FEF6A
:103D600084E79AE00E94423F00EF10E02AE231E04F
:103D700040E050E062E271E084E79AE00E94FA409D
:103D800020E040E060E084E79AE00E94423F0FEECE
:103D900010E029E231E041E050E063E271E084E7C5
:103DA0009AE00E94F0418091DC099091DD0906972C
:103DB00074F128EC48EC68EC84E79AE00E94423FFA
:103DC0006091DC097091DD098EEE90E00E94074B56
:103DD0008091DA099091DB09689FA001699F500DDD
:103DE000789F500D112485E0869F8001879F100DDC
:103DF00011240F5F1F4F040F151F4F5F5F4F29E204
:103E000031E063E271E084E79AE00E94EF3F26969A
:103E10000FB6F894DEBF0FBECDBFDF91CF911F91DB
:103E20000F91FF90EF9008950F931F9382E090E021
:103E30009093D9098093D80984E79AE00E94A93E1B
:103E400028DB20E040E06FEF84E79AE00E94423FE9
:103E500002EF10E02FE331E042ED50E068E171E065
:103E600084E79AE00E943E412FE331E042ED50E0CA
:103E700062E271E084E79AE00E94FA4020E440E4C4
:103E800060E484E79AE00E94423F01EF10E02FE3F4
:103E900031E043ED50E069E171E084E79AE00E948F
:103EA000EF3F2FE331E043ED50E06CE271E084E757
:103EB0009AE00E94F0412FEF4FEF6FEF84E79AE016
:103EC0000E94423F66EA7CE284E79AE00E942F4922
:103ED00020E440E460E484E79AE00E94563F00E07A
:103EE00010E020EE30E04FE057E263EF72E084E74D
:103EF0009AE00E945B471F910F9108950F931F93C3
:103F0000CF93DF93CDB7DEB768970FB6F894DEBFD7
:103F10000FBECDBF8C0168EF72E0CE0101960E940A
:103F20002F30CE01019639DACE0101960E94C42FBE
:103F3000F8018081813491F46AEF72E0CE0101963C
:103F40000E942F30CE01019628DACE0101960E9400
:103F5000C42F10921F0510922005E3C0B801CE01B6
:103F600043960E942F3060E070E0CE0143960E949D
:103F70003B31813009F0A4C06CEF72E0CE010196B4
:103F80000E942F30CE01019608DACE0101960E94E0
:103F9000C42F61E070E0CE0143960E943B31813333
:103FA00009F058C062E070E0CE0143960E943B31B8
:103FB000182F63E070E0CE0143960E943B31212F21
:103FC00030E02053310994E6929F8001939F100DB9
:103FD000112490E0C0974AE0489F9001499F300D1E
:103FE0001124020F131F64E070E0CE0143960E947B
:103FF0003B3190E0C097080F191F2F89388D45E09D
:1040000050E0BE016D5E7F4FCE0101960E946B3184
:104010002BE638E241E050E0B801CE01019644DDE4
:10402000CE0101960E94C42F61E173E0CE0101969A
:104030000E942F30CE010196B0D9CE0101960E9488
:10404000C42F8091D8099091D909019709F065C0D2
:104050006ADD63C061E070E0CE0143960E943B31AF
:10406000803311F562E070E0CE0143960E943B314F
:10407000182F2F89388D43E050E0BE016D5E7F4FD1
:10408000CE0101960E946B3161E0103309F460E0CB
:104090004EEF59E1CE010196D4DCCE0101960E948B
:1040A000C42F69E273E0C2CF6AE373E0CE010196E8
:1040B0000E942F30CE01019670D9CE0101962BC0FF
:1040C00069E573E0CE010D960E942F30BE01635F5B
:1040D0007F4FCE0107960E94583060E0CE010796D0
:1040E0000E94123167E274E00E94FB30B8010E9426
:1040F000FB30BC01CE0101960E945830CE010196E2
:104100004CD9CE0101960E94C42FCE0107960E9481
:10411000C42FCE010D960E94C42FCE0143960E945B
:10412000C42F8091D8099091D909029709F47CDEB7
:1041300068960FB6F894DEBF0FBECDBFDF91CF916A
:104140001F910F9108956F927F928F929F92AF92DD
:10415000BF92CF92DF92EF920F931F93CF93DF9393
:104160006C01EB013A015901480120E040E060E0B8
:1041700084E79AE00E94423F8501015011099301B2
:1041800021503109AE014F5F5F4FB6016F5F7F4F26
:1041900084E79AE00E94EF3F2FEF4FEF6FEF84E745
:1041A0009AE00E94423F20E040E060E084E79AE02D
:1041B0000E94563F81E0E81219C06EEE78E184E774
:1041C0009AE00E942F4995012C1B3D0B37FF02C03E
:1041D0002F5F3F4F359527952C0F3D1F28513109F3
:1041E00000E010E0A6014A5E5F4F36C0E11019C042
:1041F00062EC70E284E79AE00E942F4995012C1B43
:104200003D0B37FF02C02F5F3F4F359527952C0F91
:104210003D1F2850310900E010E0A6014B5F5F4FC1
:104220001BC082E0E8121DC066EA7CE284E79AE0E7
:104230000E942F4995012C1B3D0B37FF02C02F5FB9
:104240003F4F359527952C0F3D1F2550310900E034
:1042500010E0A601495F5F4FB40184E79AE00E9435
:104260005B4720E040E06FEF84E79AE00E94423F26
:1042700085019301AE01B60184E79AE00E943E41B8
:10428000DF91CF911F910F91EF90DF90CF90BF9072
:10429000AF909F908F907F906F900895EF92FF92D4
:1042A0000F931F93CF93DF93CDB7DEB762970FB60F
:1042B000F894DEBF0FBECDBF86E2E82E85E0F82E73
:1042C00000E010E08091DC099091DD0908171907E2
:1042D00094F5F7018081882341F167E673E0CE0110
:1042E0000D960E942F30BE01635F7F4FCE0107966F
:1042F0000E945830B801CE0107960E941E31BC01C1
:10430000CE0101960E945830CE01019646D8CE01CA
:1043100001960E94C42FCE0107960E94C42FF70178
:104320001082CE010D960E94C42F0F5F1F4FF8E13F
:10433000EF0EF11CC7CF62960FB6F894DEBF0FBE2A
:10434000CDBFDF91CF911F910F91FF90EF90089516
:10435000EF920F931F9383E090E09093D90980939D
:10436000D80919D8882319F020E04FEF02C02FEFA9
:1043700040E060E084E79AE00E94423F04E110E000
:1043800021E930E040E050E06FEA70E084E79AE035
:104390000E94EF3F01E010E021E930E040E050E012
:1043A0006FEA70E084E79AE00E94F04120E040E08C
:1043B0006FEF84E79AE00E94423F08EC10E028E1AA
:1043C00031E042E350E06EE170E084E79AE00E9461
:1043D0003E4120E040E060E084E79AE00E94423FF6
:1043E00007EC10E027E131E043E350E06FE170E0DB
:1043F00084E79AE00E94EF3F2FEF4FEF6FEF84E7E3
:104400009AE00E94423F20E040E060E084E79AE0CA
:104410000E94563F66EA7CE284E79AE00E942F49B8
:1044200000E010E026E430E042E350E062E873E0B0
:1044300084E79AE00E945B472AE530E042E350E0DF
:104440006BE873E084E79AE00E945B470E94CB1917
:10445000882371F020E04FEF60E084E79AE00E944B
:10446000423F2EE630E042E350E060EA73E00FC0E6
:104470002FEF40E060E084E79AE00E94423F00E0D6
:1044800010E02EE630E042E350E064EB73E084E7B6
:104490009AE00E945B478091220592E0E92E8823F2
:1044A000D9F009EC13E02EEB30E04CEB50E06AEA77
:1044B00070E08AE790E047DE20E04FEF60E084E7BD
:1044C0009AE00E94423F00E010E026E430E048E736
:1044D00050E060ED73E01AC00FED13E02EEB30E01A
:1044E0004CEB50E06AEA70E08AE790E02CDE2FEFB8
:1044F00040E060E084E79AE00E94423F00E010E084
:1045000026E430E048E750E066EE73E084E79AE0A6
:104510000E945B471F910F91EF900895AF92BF9259
:10452000CF92DF92EF92FF920F931F93CF93DF937F
:10453000EC017B016A0159012FEF40E060E084E764
:104540009AE00E94423F85019601A701BE0184E7DF
:104550009AE00E943E4189E39AE00E946E348823EB
:1045600029F089E39AE00E94C932F5CF2FEF4FEF8F
:104570006FEF84E79AE00E94423F85019601A70110
:10458000BE0184E79AE00E943E41DF91CF911F91E6
:104590000F91FF90EF90DF90CF90BF90AF90089574
:1045A000AF92BF92CF92DF92EF92FF920F931F9341
:1045B000CF93DF93EC0184E090E09093D90980934E
:1045C000D80920E04FEF60E084E79AE00E94423F84
:1045D00062EC70E284E79AE00E942F4920E040E01C
:1045E00060E084E79AE00E94563FAE010D2E000C79
:1045F000660B770B90E2C92EE12CF12C00E010E065
:1046000020E030E084E79AE00E944748EE24E394FB
:104610000FEA14E023E430E04BE450E061E170E0A5
:1046200080E090E090DD05EF13E023E430E04BE91B
:1046300050E061E170E080E590E085DD07EF13E098
:1046400023E430E04BEE50E061E170E080EA90E07E
:104650007ADD09EF13E023E430E04BE351E061E160
:1046600070E080EF90E06FDD0BEF13E02AE730E0C1
:104670004BE450E068E470E080E090E064DD0DEF32
:1046800013E02AE730E04BE950E068E470E080E5B1
:1046900090E059DD0FEF13E02AE730E04BEE50E0F9
:1046A00068E470E080EA90E04EDD01E014E02AE783
:1046B00030E04BE351E068E470E080EF90E043DDF0
:1046C000E12C03E014E021EB30E04BE450E06FE735
:1046D00070E080E090E037DDEE24E39407E014E042
:1046E00021EB30E04BE950E06FE770E080E590E0CF
:1046F0002ADD09E014E021EB30E04BEE50E06FE7FB
:1047000070E080EA90E01FDDE12C0BE014E021EB8B
:1047100030E04BE351E06FE770E080EF90E013DDB5
:104720000FE014E028EE30E04BE950E066EB70E07B
:1047300080E090E008DD06E114E028EE30E04FE391
:1047400051E066EB70E080EA90E0FDDC20E040E0C4
:104750006FEF84E79AE00E94423F2AE0A22EB12C3C
:104760003AE0D32E89E39AE00E946E348823D1F395
:1047700089E39AE00E94C93289E39AE00E94873473
:104780009093D7098093D60989E39AE00E944F3528
:104790009093D5098093D4092091D6093091D709F7
:1047A00037FDBAC0813191050CF499C02C34310524
:1047B0005CF5843491050CF096C023E430E04BE4C2
:1047C00050E061E170E080E090E0A8DE20E040E0B1
:1047D0006FEF84E79AE00E94423F03E410E02BE48D
:1047E00030E041E150E060E070E084E79AE00E9450
:1047F0003E41C436D105D4F5DC9EC001DD9E900D4E
:104800001124EC01219632C0203531050CF46BC027
:104810002C3931050CF075C0843491050CF07CC046
:1048200023E430E04BE950E061E170E080E590E0A6
:1048300075DE20E040E06FEF84E79AE00E94423F9F
:1048400003E410E02BE930E041E150E060E570E086
:1048500084E79AE00E943E41C436D1053CF4DC9ED8
:10486000C001DD9E900D1124EC01229620E040E075
:1048700060E084E79AE00E94423F00E110E02CE310
:1048800030E040E050E060E070E084E79AE00E94B1
:10489000F04120E04FEF60E084E79AE00E94423F61
:1048A00062EC70E284E79AE00E942F4920E040E049
:1048B00060E084E79AE00E94563F80E2C82EE12C37
:1048C000F12C00E010E020E030E0AE010D2E000CF5
:1048D000660B770B84E79AE00E94474843CF203A63
:1048E00031050CF077C0203F3105B4F081319105DE
:1048F000ACF02C3341E034078CF484349105D4F0CF
:104900000BC0203A310544F02C3E31050CF0D1C1EA
:10491000843491050CF4A5C137FD78C08834910525
:104920000CF458C02C3431050CF065C08B37910560
:104930004CF16CC023E430E04BE351E061E170E006
:1049400080EF90E0EBDD20E040E06FEF84E79AE05D
:104950000E94423F03E410E02BE331E041E150E0EC
:1049600060EF70E084E79AE00E943E41C436D105D2
:104970000CF07CCFDC9EC001DD9E900D1124EC017B
:10498000249674CF2AE730E04BE450E068E470E00E
:1049900080E090E0C3DD20E040E06FEF84E79AE044
:1049A0000E94423F0AE710E02BE430E048E450E088
:1049B00060E070E084E79AE00E943E41C436D10591
:1049C0000CF054CFDC9EC001DD9E900D1124EC0153
:1049D00025964CCF203A3105CCF0203F3105D4F458
:1049E0008F3791050CF44AC02C3E3105BCF4823B54
:1049F0009105E4F0F5C12035310544F02C3931053D
:104A00000CF084C18B3791050CF458C12035310569
:104A10000CF463C08F3791050CF46CC02C39310550
:104A20000CF057C0823B91056CF157C021EB30E090
:104A30004BEE50E06FE770E080EA90E06FDD20E041
:104A400040E06FEF84E79AE00E94423F01EB10E004
:104A50002BEE30E04FE750E060EA70E084E79AE048
:104A60000E943E41C436D1050CF000CFDC9EC0014F
:104A7000DD9E900D1124EC012996F8CE203F3105E2
:104A8000CCF52BC021EB30E04BE950E06FE770E054
:104A900080E590E043DD20E040E06FEF84E79AE0BE
:104AA0000E94423F01EB10E02BE930E04FE750E07D
:104AB00060E570E084E79AE00E943E41C436D1058B
:104AC0000CF0D4CECE01D89EE001D99ED00D112499
:104AD000CDCE203F31050CF09EC037FDC7CE8F37BD
:104AE00091050CF4C3CE2C34310534F4823B91058E
:104AF00044F102C037FDBACE863B91050CF4B6CE28
:104B00002C3931050CF083C0893E91050CF0AECEF6
:104B100028EE30E04BE950E066EB70E080E090E09A
:104B2000FDDC20E040E06FEF84E79AE00E94423F26
:104B300008EE10E02BE930E046EB50E060E070E07A
:104B400050C021EB30E04BE450E06FE770E080E0D4
:104B500090E0E4DC20E040E06FEF84E79AE00E9420
:104B6000423F01EB10E02BE430E04FE750E060E023
:104B700070E084E79AE00E943E411C161D060CF08E
:104B800075CECE01B5010E94074BEB016FCE37FF0A
:104B9000AACF203A31050CF469CE863B91050CF47E
:104BA00065CE203431400CF061CE893E91050CF089
:104BB0005DCE28EE30E04FE351E066EB70E080EA36
:104BC00090E0ACDC20E040E06FEF84E79AE00E94E8
:104BD000423F08EE10E02FE331E046EB50E060EAA0
:104BE00070E084E79AE00E943E4184E79AE00E94E8
:104BF000A93E0E94931DCE01DF91CF911F910F918D
:104C0000FF90EF90DF90CF90BF90AF900895203A43
:104C100031053CF62BCE2C3341E034070CF06CCF41
:104C2000823B91050CF0B3CF21EB30E04BE351E038
:104C30006FE770E080EF90E071DC20E040E06FEF24
:104C400084E79AE00E94423F01EB10E02BE331E061
:104C50004FE750E060EF70E084E79AE00E943E4149
:104C600005CE23E430E04BEE50E061E170E080EAF5
:104C700090E054DC20E040E06FEF84E79AE00E948F
:104C8000423F03E410E02BEE30E041E150E060EA07
:104C900070E084E79AE00E943E41C436D1050CF0F2
:104CA000E5CDDC9EC001DD9E900D1124EC01239624
:104CB000DDCD203F31050CF01CCE2ECE2AE730E0B2
:104CC0004BE950E068E470E080E590E027DC20E00C
:104CD00040E06FEF84E79AE00E94423F0AE710E06D
:104CE0002BE930E048E450E060E570E084E79AE0CA
:104CF0000E943E41C436D1050CF0B8CDDC9EC00107
:104D0000DD9E900D1124EC012696B0CD203A3105A0
:104D10000CF47CCE2C3E31055CF58B3791059CF56F
:104D20002AE730E04BEE50E068E470E080EA90E083
:104D3000F5DB20E040E06FEF84E79AE00E94423F1D
:104D40000AE710E02BEE30E048E450E060EA70E063
:104D500084E79AE00E943E41C436D1050CF086CD2E
:104D6000DC9EC001DD9E900D1124EC0127967ECDC6
:104D7000203F310544F02C3341E034070CF030CEB5
:104D80008B3791052CF0203A31050CF43FCE28CE1C
:104D90002AE730E04BE351E068E470E080EF90E018
:104DA000BDDB20E040E06FEF84E79AE00E94423FE5
:104DB0000AE710E02BE331E048E450E060EF70E0F8
:104DC00084E79AE00E943E41C436D1050CF04ECDF6
:104DD000DC9EC001DD9E900D1124EC01289646CD8D
:104DE000203531050CF479CE19CECF92DF92EF92B7
:104DF000FF920F931F93CF93DF9300D000D0CDB7D6
:104E0000DEB7082F10E02091DC093091DD09021790
:104E100013070CF021C1E82E8091DA099091DB098B
:104E2000800F911F28E1F22EF89EF001F99EF00DFF
:104E30001124EC5DFA4F808191818130910509F058
:104E4000C4C08091D6099091D7099C01225D310997
:104E50002431310518F52FE2029FB00111249B0186
:104E60002C5D3F4F645F7F4F45EE50E082ED90E058
:104E700055DB8091DA099091DB09800F911FF89E34
:104E8000B001F99E700D1124FB01EC5DFA4F82898F
:104E9000938924893589821B930B29C09C01245056
:104EA00031402531310508F058C03FE2039FB00181
:104EB00011249B012C5D3F4F645F7F4F48E151E01F
:104EC00084E091E02BDB8091DA099091DB09800F7F
:104ED000911FF89EB001F99E700D1124FB01EC5D4D
:104EE000FA4F2289338984899589820F931F938B86
:104EF000828B605D7A4FCE0101960E94583080917E
:104F0000DA099091DB09800F911FF89EF001F99E5C
:104F1000F00D1124EC5DFA4FA801BE016F5F7F4FC9
:104F2000828993890E94A01BCE0101960E94C42F02
:104F30008091DA099091DB09080F191FF09EF001AA
:104F4000F19EF00D1124EC5DFA4F62897389068899
:104F5000F789E02D8E0D19957FC0865E91094E97D9
:104F600008F07AC08FE2089FB00111249B012C5DEC
:104F70003F4F645F7F4F43E051E086EE90E0CEDA32
:104F800084E79AE00E94A93E2091DA093091DB097A
:104F9000200F311FF29EC001F39E900D1124FC01E1
:104FA000EC5DFA4F6F0182899389FADAF601938BEF
:104FB000828B8091DA099091DB09800F911FF89E16
:104FC000B001F99E700D112494CF892B09F044C0D3
:104FD000FFE20F9FB00111249B01225F3F4F6E5DE6
:104FE0007F4F43E151E08FEF90E098DA8091DA094A
:104FF0009091DB09800F911FF89EB001F99E700D12
:105000001124FB01EC5DFA4FD18481E0D826D186D2
:10501000695D7A4FCE0101960E945830A8016D2D2E
:10502000CE0101960E94DE1ACE010196ADD7809185
:10503000DA099091DB09080F191FF09ED001F19E4B
:10504000B00D1124AC5DBA4F1A96ED91FC911B97EF
:1050500019966C918E0D199526960FB6F894DEBFB1
:105060000FBECDBFDF91CF911F910F91FF90EF90B9
:10507000DF90CF9008951F93CF93DF93EC01FB0156
:1050800060E177E20E94F34A462FCE0164E670E0C9
:105090000E94F34A182F20E3260F84E6489F201928
:1050A000112436EFCE0168EE73E00E94F34A349F7C
:1050B000600D1124639F200D11242083812F6AE04D
:1050C0000E94E74A805D8183905D92831382DF9125
:1050D000CF911F910895EF92FF921F93CF93DF938B
:1050E000CDB7DEB7A4970FB6F894DEBF0FBECDBF25
:1050F000182F7B0197E0E6E0F2E0DE0111960190C7
:105100000D929A95E1F7FE01389683E1DF011D9239
:105110008A95E9F780E3810F8F8318866CE174E04C
:10512000CE0101960E94934DBE016F5D7F4FC70176
:10513000A2DFBE016F5D7F4FCE0101960E94934DAD
:10514000BE016F5F7F4FCE014B9689D7CE014B9644
:105150000E94CD19CE014B9617D7B8E11B02F00182
:105160001124EC5DFA4F81E08283A4960FB6F89487
:10517000DEBF0FBECDBFDF91CF911F91FF90EF90AB
:1051800008950F931F9389E39AE00E946E34882359
:1051900009F4BFC1809123058111BBC189E39AE065
:1051A0000E94C93289E39AE00E9487349093D7091C
:1051B0008093D60989E39AE00E944F359093D509F0
:1051C0008093D4092091D8093091D909211531054E
:1051D00039F481E090E09093D9098093D80991C186
:1051E0002130310509F031C12091D6093091D7091C
:1051F000A901425251404F31510508F073C0883720
:105200009105C8F527E730E04FE351E060E070E03A
:105210008CE291E083D98091DA099091DB0918162C
:10522000190644F401979093DB098093DA090E94F0
:10523000931D13C020E040E06FEF84E79AE00E94E6
:10524000423F0FEE10E02FE331E049E750E06CE21F
:1052500071E084E79AE00E943E4120E040E06FEF79
:1052600084E79AE00E94423F07E710E02FE331E035
:1052700040E050E030C0AC01495751094837510572
:1052800088F52FEE30E04FE351E069E770E08CE203
:1052900091E044D98091DA099091DB09AC014B5F30
:1052A0005F4F2091DC093091DD094217530734F438
:1052B00001969093DB098093DA0927C120E040E052
:1052C0006FEF84E79AE00E94423F0FEE10E02FE379
:1052D00031E049E750E06CE271E084E79AE00E9437
:1052E0003E4117C1A9014E5651094135510598F467
:1052F000AC01485C51094B32510568F422EF30E0B3
:1053000043EB50E062ED70E08AE890E007D91F912E
:105310000F910C94141F215931092F31310568F474
:105320008531910550F424E130E041E950E060E03E
:1053300070E08FEA90E0F2D8DAC08F329105E8F49D
:1053400080E053DD0E94CB19882319F020E04FEF55
:1053500002C02FEF40E060E084E79AE00E94423F05
:1053600004E110E021E930E040E050E06FEA70E055
:1053700084E79AE00E94EF3FCCC09C012D52310996
:105380002F32310510F481E00FC09C012A553109FC
:105390002F32310510F482E007C09C0127583109F3
:1053A0002F32310520F483E01F910F911ECD845BD5
:1053B00091098F9708F0ADC084E017DD20E040E050
:1053C0006FEF84E79AE00E94423F02EF10E023EB88
:1053D00030E042ED50E06AE870E084E79AE00E9435
:1053E0003E4120E440E460E484E79AE00E94423FCA
:1053F00001EF10E022EB30E043ED50E06BE870E0AD
:1054000084E79AE00E94EF3F2FEF4FEF6FEF84E7C2
:105410009AE00E94423F66EA7CE284E79AE00E94BA
:105420002F4920E440E460E484E79AE00E94563F7C
:1054300000E010E020EE30E04EE057E26FEE72E068
:1054400084E79AE00E945B4764C022303105C9F4CA
:105450002091D6093091D7092851314028323105A1
:1054600008F057C0825D9109819708F052C022EF81
:1054700030E04FE351E062ED70E088E191E04ED81A
:1054800040C023303105D1F52091D6093091D7099C
:10549000A901415951094F31510598F485319105C0
:1054A00080F424E130E041E950E060E070E08FEA10
:1054B00090E034D88091DC099091DD0905972CF5B6
:1054C00020C02A5731092334310518F58A5A910929
:1054D0004597F8F42EEB30E04CEB50E06AEA70E0D0
:1054E0008AE790E01BD880912205811104C01F91AA
:1054F0000F910C94A8210E944E2107C02430310541
:1055000041F484E79AE00E94A93E1F910F910C9408
:10551000931D1F910F9108950F931F93CF93DF93C6
:10552000CDB7DEB72C970FB6F894DEBF0FBECDBF58
:1055300061E089E39AE060D762E089E39AE00E9443
:10554000153661E084E79AE00E94363D62EC70E235
:1055500084E79AE00E942F4984E79AE00E94A93EDE
:105560002FEF4FEF6FEF84E79AE00E94423F2FEF5B
:105570004FEF6FEF84E79AE00E94563F0FEE10E086
:105580002FE331E040E050E060E070E084E79AE033
:105590000E94F04120E040E060E084E79AE00E9451
:1055A000423F66EA7CE284E79AE00E942F4900E0ED
:1055B00010E020E030E04EE057E26DE774E084E771
:1055C0009AE00E945B4723EE30E04EE057E26EE83F
:1055D00074E084E79AE00E945B4768EA74E0CE01D9
:1055E00001963DD5CE0101960E94CD19CE010196BE
:1055F000CBD46DEA74E0CE01079631D5BE01695F68
:105600007F4FCE01019654D52BE638E241E050E0C1
:1056100060E070E0CE0101960E94541DCE0101961B
:10562000B3D48EE79FE10E947219109222050E9466
:105630007719E0E8F0E080818C7F8083E1E8F0E09A
:1056400080818B7E808380818B608083EFE6F0E0B9
:1056500080818260808384E39CE0909389008093C2
:1056600088007894CE0107968FD42C960FB6F894C4
:10567000DEBF0FBECDBFDF91CF911F910F91089577
:1056800080CD1F920F920FB60F9211240BB60F927E
:105690002F933F934F935F936F937F938F939F933A
:1056A000AF93BF93EF93FF93CF93DF9300D000D0DE
:1056B000CDB7DEB780912105882379F1809120054F
:1056C0008F5F80932005893240F190911F059111E1
:1056D00014C081EB94E00E948A1963EB74E0CE0160
:1056E0000196BDD4CE0101960E94CD19CE0101963E
:1056F0004BD481E080931F050EC08E3270F065EBB5
:1057000074E0CE010196ABD4CE0101960E94CD1972
:10571000CE01019639D41092200526960FB6F89442
:10572000DEBF0FBECDBFDF91CF91FF91EF91BF9153
:10573000AF919F918F917F916F915F914F913F9129
:105740002F910F900BBE0F900FBE0F901F901895CA
:10575000CF92DF92EF92FF920F931F93CF93DF933D
:10576000C12CD12C99E2E92EF12C08E210E027E2BD
:1057700030E046E250E061E184E79AE00E940B3BB2
:1057800022E0E22E03E024E045E066E089E39AE0CF
:1057900028D6CFEDD9E069E274E0CE0160D4269638
:1057A0008AE0C933D807B9F788E1E4E2F5E0DF0120
:1057B0001D928A95E9F769E274E087E295E04FD49B
:1057C00069E274E080E395E04AD4C0E0D0E088E18B
:1057D000F82E8E01085E1F4FF801EC5DFA4FDF01D5
:1057E0008F2D1D928A95E9F769E274E0CE01815C04
:1057F0009A4F35D469E274E0CE01885B9A4F2FD47A
:10580000E8010839144029F7DF91CF911F910F91DA
:10581000FF90EF90DF90CF900895CF93DF93C4ED8A
:10582000D9E06897CE010C96AFD3CE010396ACD3E6
:1058300085E0C432D807A9F7C9E3DAE02697CE019C
:10584000A3D389E0CF3DD807C9F7DF91CF91089561
:10585000CF92DF92EF92FF92CF93DF936B017C01A7
:10586000D42FC22F60E472E48FE090E0A70196018C
:105870000E941A4B69017A0181E0C81AD108E10837
:10588000F108C6010D2C000CAA0BBB0BA701960159
:10589000281B390B4A0B5B0BAAE0B0E00E94604B5F
:1058A00021E030E0653071058105910510F420E0BC
:1058B00030E0C20ED31ED092CD00C092CC00DD23CA
:1058C00029F08091C90088608093C900CC2329F019
:1058D0008091C90080618093C9008091CA00877C53
:1058E0008093CA008091C9008B7F8093C90080910A
:1058F000CA0086608093CA001092A70A1092AA0A72
:105900001092AB0A81E08093A90ADF91CF91FF90BA
:10591000EF90DF90CF900895EF920F9399DF0023DF
:1059200031F08091C90080648093C9007894EE20A2
:1059300031F08091C90080688093C90078940F91FC
:10594000EF9008959093A60A8093A50A08959091E8
:10595000C80095FFFCCF8093CE0008958AE0F7DF62
:105960008DE0F5CFCF93DF93EC018881882349F058
:1059700088818A3011F4F2DF02C08881E8DF219645
:10598000F4CFDF91CF9108951F920F920FB60F922F
:1059900011240BB60F928F93EF93FF93E091AA0A15
:1059A000F0E0E555F54F8081882369F0E091AA0A7F
:1059B00081E08E0F8093AA0AF0E0E555F54F8081D3
:1059C0008093CE0003C081E08093A90AFF91EF91FC
:1059D0008F910F900BBE0F900FBE0F901F901895D8
:1059E0001F920F920FB60F9211240BB60F922F93A6
:1059F0003F934F935F936F937F938F939F93AF9357
:105A0000BF93EF93FF938091CE008093A80AE0911B
:105A1000A50AF091A60A309719F08091A80A199565
:105A200081E08093A70AFF91EF91BF91AF919F9181
:105A30008F917F916F915F914F913F912F910F9037
:105A40000BBE0F900FBE0F901F9018955058BB279C
:105A5000AA270ED0E5C0D6D030F0DBD020F031F44C
:105A60009F3F11F41EF4CBC00EF4E095E7FBC1C0DC
:105A7000E92FE7D080F3BA17620773078407950709
:105A800018F071F49EF5FFC00EF4E0950B2EBA2FBE
:105A9000A02D0B01B90190010C01CA01A001112434
:105AA000FF27591B99F0593F50F4503E68F11A16E0
:105AB000F040A22F232F342F4427585FF3CF469571
:105AC00037952795A795F0405395C9F77EF41F1693
:105AD000BA0B620B730B840BBAF09150A1F0FF0F5D
