S01500006665726E62656469656E756E672E73726563B3
S11300000C9436190C9467190C9467190C9467199D
S11300100C9467190C9467190C9467190C9467195C
S11300200C9467190C9467190C9467190C9467194C
S11300300C9467190C9467190C9467190C9467193C
S11300400C9467190C94CB320C9467190C946719AF
S11300500C9467190C9467190C9467190C94D33A8F
S11300600C9467190C9432390C9468390C94671900
S11300700C9467190C9467190C9467190C946719FC
S11300800C9467190C9467190C9467190C946719EC
S11300900C9496340C9467190C946A340C94671974
S11300A00C9467190C9467190C9467190C946719CC
S11300B00C9467190C9467190C9467190C946719BC
S11300C00C9467190C9467190C9467190C946719AC
S11300D00C9467190C9467190C9467190C9467199C
S11300E00C946719072C7AA5BA6CC590DA3B936512
S11300F0FC8BBC53F810FD3C5692834DBD879D3A52
S1130100B63DCBC9BF5BBE73DA0FC93F05A84CCD62
S1130110B2D44EB93836A9020C50B9918688083C3D
S1130120A6AAAA2ABE000000803F2A3C2D3C1C3C03
S1130130203C263C643C313C353C3B3C3F3C433C0E
S1130140493C4D3C513C643C573C5B3C5F3C0000AB
S11301500A0B02090C0D0E0807030401000000003D
S1130160000000000000000000000000000000008B
S11301700000000000000000000012111000000048
S1130180000000000000000000000000000000006B
S11301900000000001021020200808102040102058
S11301A04080020102010804020101020408102037
S11301B04080804020100804020180040201804035
S11301C0201008040201080402010102040810209E
S11301D0408001020408102040800505050507053C
S11301E008080808020202020A0A080804040404AF
S11301F001010101010101010303030303030303DB
S1130200040707070C0C0C0C0C0C0C0C0202020269
S113021006060606060606060B0B0B0B0B0B0B0B52
S1130220000020002300260029002C002F003200AB
S1130230000100000301060109010000220025005D
S113024028002B002E0031003400020100000501BB
S113025008010B0100002100240027002A002D00C2
S11302603000330001010000040107010A011010ED
S1130270205F0000000000000000000000000000FB
S1130280000000000000000000000000000000006A
S11302900000000000000000000001000100010057
S11302A00FE0010001000100000000000FE0000069
S11302B000000000000603E40FF81F1C1C2E3C4E37
S11302C0388E398E391E3A3C1C7C0FF813E030000E
S11302D0000000000000000000000000000000001A
S11302E000000000000000000CCC0CCC0CCC000082
S11302F00000000000000000308069004B005A003C
S1130300360004000D8C0B5A125212D6218C0000B8
S113031000000000000000001E18333063606340DA
S113032066C03DBC036602C606C60CCC1878000045
S1130330000000000000000003E006600CC00DC0D7
S113034006E00000000000000000000000000000C3
S113035000000000000003E000300030007001C025
S1130360070007E00000000000000000000000009B
S113037000000000000007C000C00380060001C0A8
S113038000C00F800000000000000000000000001A
S1130390000000000000018003801FF00300030040
S11303A03FE0070006000E000E0000000000000001
S11303B00000000000000000000000300070006039
S11303C000000FFE0FFE000000C001C0018000000D
S11303D0000000000000003000E000E00060006069
S11303E000C000C000C000000000000000000000C9
S11303F00000000000000000381C1C3C1C180E30DB
S11304001E7803C003C03FF8030007000700000084
S113041000000000000000F803F80300038007F068
S11304200CF80E180F9803E000F008300FF007C026
S113043000000000000000000000000000000000B8
S1130440018003C003C00180000000000000000020
S11304500000000000000010007C00FC01D003A09C
S113046003A003A003A001F800F000400040000036
S113047000000000000003C00FF01C381DB8399CB8
S1130480399C399C399C1DB81C380FF003C00000FE
S113049000000000000003C00FF01F381E383F3C6E
S11304A03F3C3F3C3F3C1F381FF80FF003C00000A7
S11304B000000000000003C00FF01E381D983F9C90
S11304C03F3C3E7C3CFC1C181FF80FF003C00000AE
S11304D000000000000003C00FF01C381F983F9C70
S11304E03E7C3F9C3F9C1F981C380FF003C00000CB
S11304F000000000000003C00FF01F781E783D7C50
S11305003D7C3B7C383C1F781F780FF003C0000013
S113051000000000000003C00FF01FF81C383DFC71
S11305203DFC3C7C3F3C1F381C780FF003C00000AE
S113053000000000000003C00FF01E181CF839FC76
S1130540383C399C399C1D981C380FF003C00000BE
S113055000000000000003C00FF01FF81C183FDC6F
S11305603FBC3F7C3EFC1CF81FF80FF003C00000AA
S113057000000000000003C00FF01C381BD839DC59
S11305803C7C3F3C3BDC1BD81C380FF003C0000014
S113059000000000000003E00FF81C3C19DC39CE19
S11305A039CE3C4E3FCE1F9C1C3C0FF803E00000AC
S11305B000000000000000000FFC0FFC0FFC0FFC0B
S11305C00FFC0FFC0FFC0FFC0FFC0FFC00000000E5
S11305D000000000000003C00FF01C381818300C95
S11305E0300C300C300C18181C380FF003C000000D
S11305F00000000000003FFC2814281428142814CC
S113060028142FF427E424E424E424E41FFC000049
S113061000000000000000C0014001200210021090
S1130620040808080804100210023FFF000000003C
S11306300000000000003FFF100210020804080838
S11306400408021002100120014000C00000000054
S1130650000000000004001C002400C4030404047F
S1130660180410040C04030400840064001C000437
S11306700000000000003FFC3FFC300C326C32EC08
S113068033CC318C33EC366C360C3FFC3FFC000031
S11306900000000000023FFC3FFC301C302C304CBA
S11306A034CC3F8C330C330C300C3FFC3FFC00004B
S11306B00000000000000000000000003FFE2806CB
S11306C0261A236226B2380E30063FFE00000000D0
S11306D00000000000003FFC3FFC300C300C300CEC
S11306E0300C300C300C300C300C3FFC3FFC000064
S11306F000000000006001FC0206040008003FF84E
S113070008001FF808000C000400030401F80000AE
S1130710000000000038007000E000C001800310F9
S113072003E006C0008001800B000A000F800C006B
S11307300000000000001C6038C0188019801338C5
S1130740327036600CCC08FC101830180000000021
S11307500000000000000C3038601840188031FCA4
S113076033060206041C0C7018FC00000000000094
S113077000000000000000007C180C30382070607D
S11307800CDC0CB8F9300366027E040C0C0C00007F
S11307900000000000000000006000E000E0000035
S11307A000C001C007800F000E000E1007F003E028
S11307B00000000000000190027000000C601DF0B9
S11307C01F701E701CE01CE038E038F000000000D0
S11307D00000000007C0183030182C684C64400436
S11307E040044824482424483398183007C00000A3
S11307F00000000003E00C18180C16342632200206
S113080021C2222224121414180C0C1803E0000034
S113081000000000000007C01830301826C846C485
S1130820400440044FE420083018183007C000008A
S113083000000000000001E003F003F002D00120FA
S113084000C000C00C080F3800C003300E180000B0
S113085000000000008001C003E007F00FF81FFC57
S11308603DDE31C621C201C001C001C001C001C0CA
S113087001C0000001C001C001C001C001C001C02D
S113088021C231C63DDE1FFC0FF807F003E001C0B2
S113089000800000038007000E001E003C007FFE65
S11308A0FFFE7FFE3C001E000E00070003800000D8
S11308B00000000001C000E000700078003C7FFEF2
S11308C07FFF7FFE003C0078007000E001C0000064
S11308D0000000000008001000200040008001809B
S11308E033001A000E000C00080000000000000095
S11308F000000000200038002400230020C0202035
S113090020182008203020C02100260038002000B4
S1130910000000000000003800381038102C2004BB
S1130920200420042004100810080C3003C0000028
S11309300000000000001C001C001C0834082004F7
S1130940200420042004100810080C3003C0000008
S11309500000000000001C703298210821082008C3
S11309602008101010100820044002800300010029
S113097000000000000007F0080813E42412240219
S113098024022402241223E21004080807F00000C1
S113099000000000000007E0081017C824242424E5
S11309A027C42484244424241008081007E00000E9
S11309B000000000000007C00820101020082008D4
S11309C0200820082008101010100C603EF80000C9
S11309D0000000000000000001800280028002800C
S11309E003000200020006000200028003800000EF
S11309F0000000000000000000000000000006707D
S1130A0009880888098806700000000000000000BA
S1130A10000000000000000040804080609C50A264
S1130A2048A248A244A2429C418040BE40800000AB
S1130A300000008001C001400220041000000000FA
S1130A4000000000000000000000000000000000A2
S1130A500000000000000000000000000000000092
S1130A600000000000000000000000000000000082
S1130A70FFFF00000000007C00E600C600CE007C02
S1130A800000000000000000000000000000000062
S1130A90000000000000007C00FE01C2038003800F
S1130AA003F803F8070006000FFC07FC0000000031
S1130AB000000000000000000000033003300220AA
S1130AC00660066806E807B004000C000C000C0081
S1130AD00000000003F806180C080C001FF01FF0BB
S1130AE008001FE00C000C08071803F000000000C9
S1130AF000000000000000000080018003800780E7
S1130B000F800F80078003800180008000000000B8
S1130B10000000000000000002000300038003C086
S1130B2003E003E003C003800300020000000000B0
S1130B3000000000000000000000030007800FC058
S1130B401FE03FF000000000000000000000000073
S1130B500000000000000000000000003FF01FE063
S1130B600FC0078003000000000000000000000028
S1130B7000000000000000000000021006300E70AB
S1130B801EF03FF03FF01EF00E7006300210000021
S1130B90000000007FFC438243C247C243824002FC
S1130BA047C243C243C243C243C243C240027FFC62
S1130BB0000000000000000008400C600E700F7878
S1130BC00FFC0FFC0F780E700C6008400000000052
S1130BD0000000000000000000003084318C339CD1
S1130BE037BC3FFC3FFC37BC339C318C3084000065
S1130BF000000000000000000000210C318C39CC02
S1130C003DEC3FFC3FFC3DEC39CC318C210C000029
S1130C1000000000000000000CC00CC00CC00CC0A0
S1130C200CC00CC00CC00CC00CC00CC00CC000002C
S1130C3000000000000000000FFC0FFC0FFC0FFC84
S1130C400FFC0FFC0FFC0FFC0FFC0FFC000000005E
S1130C50000000000000000001E007F807F80FFCA6
S1130C600FFC0FFC0FFC07F807F801E00000000080
S1130C700000000008000C000E000F000FC00FC0A1
S1130C800FC00FC00FC00F000E000C0008000000C2
S1130C900000000000080038007801E803C80308D9
S1130CA00208027802F802F01E003E003C00000038
S1130CB00000000004201C701C301C383018301850
S1130CC030183018387018701C700840000000008C
S1130CD00000000000000180038003800300020084
S1130CE00200020002000300038003800180000070
S1130CF00000000006001C183820343A6E7CE770AF
S1130D0043E001C003E007701E382C1C040E1804D5
S1130D100000030007800FC01FE03FF07FF8FFFCD6
S1130D20FFFC7FF83FF01FE00FC0078003000000C6
S1130D3000000000000000000000000006700FF832
S1130D403FFE1C1C0FF803E0000000000000000040
S1130D5000000000000003E00C18180C13C4222249
S1130D602222222223C2220212041A0C0C1803E0AB
S1130D70000000000000000003FC1FFE1FFF3FFFF7
S1130D803FFF3FFF1FFF0FFF1FF81C00380000004C
S1130D90000000000200010001C000E020E030E09B
S1130DA0BFFF30E020E000E0018001C0030000004C
S1130DB000000000000078004E00B500BAC089B001
S1130DC0784826381994066401A2007E00000000C9
S1130DD0000000000180018001800FF00FF001800D
S1130DE001800180018001800180018000000000F9
S1130DF00000000000000000C00078003F001FE079
S1130E000FFC080E107023804C00F000000000005E
S1130E1000000000000000007000500F787C07E024
S1130E20038007E0787C500F700000000000000091
S1130E3000000000008000C000C001E0033007385B
S1130E401E1E20031F3C033001A000C000C0008010
S1130E5000001010205F00000000000000000000EF
S1130E60000000000000000000000000000000007E
S1130E700000000000000000000003000300030065
S1130E800300030003000300030003000000030049
S1130E900300000000000000000006600660066019
S1130EA006600000000000000000000000000000D8
S1130EB0000000000000000000000360036006C0A2
S1130EC03FF03FF006C00D803FF03FF00D801B0067
S1130ED01B000000000000000100038007C00D603B
S1130EE00D000F00078003C001E00D600D6007C016
S1130EF0038001000000000000003C1866306630EA
S1130F00666066C03CC0019E01B3033303330633FD
S1130F100C1E000000000000000007C00FE00C6081
S1130F200C6007C007800D9019D818F018780FFCD2
S1130F30078800000000000000000180018001809B
S1130F40018000000000000000000000000000001C
S1130F500000000000000000018003000300060000
S1130F600600060006000600060006000300030053
S1130F70018000000000000006000300030001805F
S1130F800180018001800180018001800300030051
S1130F9006000000000000000000000000000380C4
S1130FA0038033983FF807C007C00EE01C7004406C
S1130FB0000000000000000000000000000000002D
S1130FC000C000C000C007F807F800C000C000C09F
S1130FD0000000000000000000000000000000000D
S1130FE000000000000000000000030003000100F6
S1130FF001000200000000000000000000000000EA
S113100000000000000003E003E000000000000016
S113101000000000000000000000000000000000CC
S113102000000000000000000000000003000300B6
S1131030000000000000000000000060006000C02C
S113104000C000C000C00180018001800180030055
S11310500300000000000000000003C007E00E7061
S11310600C300C300C300C300C300C300E7007E0AF
S113107003C000000000000000000180038007801E
S11310800D80098001800180018001800180018040
S11310900180000000000000000003C007E00E30E3
S11310A00C300030006000E001C0038006000FF047
S11310B00FF0000000000000000003E007F00E3015
S11310C0003001E001E0007000300C300E7007E0E9
S11310D003C00000000000000000006000E000E029
S11310E001E00360036006600C600FF00FF0006025
S11310F00060000000000000000007E007E00600B8
S11311000C000FC00FE00C7000300C300E7007E0C4
S113111003C0000000000000000003E007F00630F8
S11311200C000DC00FE00E700C300C30063007E0E0
S113113003C000000000000000000FF00FF000608A
S113114000C000C00180018001800380030003000F
S11311500300000000000000000003C007E00C30A2
S11311600C300C3007E007E00C300C300C3007E09A
S113117003C0000000000000000003C007E00C6092
S11311800C300C300E7007F003B000300C600FE030
S113119007C0000000000000000000000180018082
S11311A00000000000000000000001800180000039
S11311B00000000000000000000000000180018029
S11311C00000000000000000000001800180008099
S11311D0008001000000000000000000000000206A
S11311E000E003C00F001C000F0003C000E000205B
S11311F000000000000000000000000000001FF0DC
S11312001FF0000000001FF01FF0000000000000AD
S113121000000000000000000000000000000800C2
S11312200E00078001E0007001E007800E00080056
S11312300000000000000000000003C007E00E30C2
S11312400C30007000E001C00180018000000180CA
S1131250018000000000000007C00C30137817E87C
S11312602CC82CC82CC82FD026E01008081007E082
S1131270000000000000000000000380038006C09E
S113128006C006C00C600C600FE01FF01830183068
S1131290301800000000000000001FE01FF01830AC
S11312A0183018301FE01FF01818181818181FF0FD
S11312B01FE0000000000000000003E00FF00C3805
S11312C01C1018001800180018001C100C380FF01F
S11312D003E000000000000000001FC01FF01830F1
S11312E018181818181818181818181818301FF083
S11312F01FC000000000000000000FF80FF80C00F1
S11313000C000C000FF80FF80C000C000C000FF888
S11313100FF800000000000000000FF00FF00C00B8
S11313200C000C000FE00FE00C000C000C000C0093
S11313300C00000000000000000007E01FF0183857
S113134038103000300030F830F8381818381FF8EA
S113135007E0000000000000000018181818181812
S1131360181818181FF81FF818181818181818182B
S113137018180000000000000000018001800180B6
S11313800180018001800180018001800180018051
S11313900180000000000000000000300030003038
S11313A0003000300030003000300C300E7007E0A8
S11313B003C0000000000000000018181830186076
S11313C018C019801BC01EC01C6018701830181873
S11313D0181800000000000000000C000C000C00B5
S11313E00C000C000C000C000C000C000C000FF0A6
S11313F00FF00000000000000000383838383C7856
S11314003C78345836D836D836D83398339833980D
S11314103118000000000000000018181C181E18E5
S11314201E181B181998199818D81878187818388D
S11314301818000000000000000007C01FF018305A
S113144030183018301830183018301818301FF091
S113145007C000000000000000000FE00FF00C388F
S11314600C180C380FF00FE00C000C000C000C00F2
S11314700C00000000000000000007C01FF018303E
S11314803018301830183018301831B818F01FF0F0
S113149007B000180000000000001FE01FF018381B
S11314A0181818381FF01FC018E0187018301838B2
S11314B0181C000000000000000003E007F00E38D4
S11314C00C180F0007E001F000380C180E3807F074
S11314D003E000000000000000001FF81FF8018076
S11314E001800180018001800180018001800180F0
S11314F001800000000000000000181818181818D7
S11315001818181818181818181818181C380FF064
S113151007E0000000000000000030181830183008
S113152018300C600C600EE006C006C00380038017
S11315300380000000000000000031C631C631C63F
S11315401B6C1B6C1B6C1B6C1B6C0E380E380E3822
S11315500E38000000000000000018301C700C6001
S113156006C007C00380038007C006C00C601C705F
S11315701830000000000000000018181C380C305F
S11315800660066003C00180018001800180018043
S11315900180000000000000000007F807F8003098
S11315A0006000E000C001800380030006000FF823
S11315B00FF800000000000003C003C00300030094
S11315C003000300030003000300030003000300FF
S11315D003C003C0000000000000030003000180FA
S11315E001800180018000C000C000C000C0006014
S11315F0006000000000000003C003C000C000C081
S113160000C000C000C000C000C000C000C000C0D6
S113161003C003C000000000018003C003C00660D3
S1131620066006600C3000000000000000000000AE
S113163000000000000000000000000000000000A6
S11316400000000000000000000000000000000096
S1131650FFFFFFFF000000000000018000C0000049
S11316600000000000000000000000000000000076
S1131670000000000000000000000000000007C09F
S11316800FE00C6001E007E00E600C600FE007B0B3
S113169000000000000000000C000C000C000DC055
S11316A00FE00E700C300C300C300E700FE00DC0DB
S11316B0000000000000000000000000000003C063
S11316C007E00E600C000C000C000E6007E003C085
S11316D0000000000000000000300030003003B0C3
S11316E007F00E700C300C300C300E7007F003B0A5
S11316F00000000000000000000000000000038063
S113170007C00C600FE00FE00C000E6007C0038000
S1131710000000000000000003C007C006000F80A6
S11317200F800600060006000600060006000600FC
S113173000000000000000000000000007600FE04F
S11317401CE01860186018601CE00FE00760186067
S11317501FE00FC0000000000C000C000C000DE0A6
S11317600FF00E300C300C300C300C300C300C30D0
S11317700000000000000000000001800180000063
S1131780018001800180018001800180018001804D
S11317900000000000000000000001800180000043
S11317A0018001800180018001800180018001802D
S11317B001800780070000000C000C000C000C6086
S11317C00CC00D800F800FC00EC00CC00C600C60EC
S11317D00000000000000000018001800180018001
S11317E001800180018001800180018001800180ED
S11317F00000000000000000000000000000373876
S11318003FFC39CC318C318C318C318C318C318C26
S113181000000000000000000000000000000DE0D7
S11318200FF00E300C300C300C300C300C300C300F
S1131830000000000000000000000000000003C0E1
S113184007E00E700C300C300C300E7007E003C053
S113185000000000000000000000000000000DC0B7
S11318600FE00E700C300C300C300E700FE00DC019
S11318700C000C000C00000000000000000003B08D
S113188007F00E700C300C300C300E7007F003B003
S11318900030003000300000000000000000037041
S11318A003F00380030003000300030003000300AC
S11318B0000000000000000000000000000007C05D
S11318C00FE00C600F0007C000E00C600FE007C0E1
S11318D0000000000000000001000300030007C036
S11318E007C00300030003000300030003C001C09A
S11318F000000000000000000000000000000C30A8
S11319000C300C300C300C300C300C700FF007B075
S1131910000000000000000000000000000006308D
S11319200630063003600360036001C001C001C0DB
S1131930000000000000000000000000000031C6AC
S113194031C619CC1B6C1B6C1B6C0E380E380E3850
S1131950000000000000000000000000000006304D
S11319600770036001C001C001C003600770063046
S113197000000000000000000000000000000C183F
S11319800C18063006300360036003E001C001C098
S1131990018007800700000000000000000003F839
S11319A003F80030007000E001C0018003F803F880
S11319B000000000000001C003C003000300030096
S11319C003000E000E0003000300030003000300E5
S11319D003C001C0000001800180018001800180FA
S11319E001800180018001800180018001800180EB
S11319F0018001800180038003C000C000C000C0DA
S1131A0000C00070007000C000C000C000C000C072
S1131A1003C0038000000000000007880FF808F0EE
S1131A2000000000000000000000000000000000B2
S1131A300000000000002032300A00000000000016
S1131A40000000FFFE0001FFFF0003FFFF8001FF15
S1131A50FF600CFFFEF01E0001F83F0001F83F009C
S1131A6001F83F0001F83F0001F83F0001F83F0092
S1131A7001F83F0001F83F0001F83F0001F83F0082
S1131A8001F83F0001F83F0001F83F0001F83E0073
S1131A900078380000182000000800000000200032
S1131AA00000380000183E0000783F0001F83F00B5
S1131AB001F83F0001F83F0001F83F0001F83F0042
S1131AC001F83F0001F83F0001F83F0001F83F0032
S1131AD001F83F0001F83F0001F83F0001F83F0022
S1131AE001F81E0000F00CFFFE6001FFFF0003FF81
S1131AF0FF8001FFFF0000FFFE0000000000000067
S1131B0000000000000000000000000000000000D1
S1131B1000000000000000000060000000F0000071
S1131B2001F8000001F8000001F8000001F80000CD
S1131B3001F8000001F8000001F8000001F80000BD
S1131B4001F8000001F8000001F8000001F80000AD
S1131B5001F8000001F800000078000000180000FF
S1131B600008000000000000000000000018000051
S1131B700078000001F8000001F8000001F80000FE
S1131B8001F8000001F8000001F8000001F800006D
S1131B9001F8000001F8000001F8000001F800005D
S1131BA001F8000001F8000001F8000000F0000056
S1131BB000600000000000000000000000000000C1
S1131BC00000000000000000000000000000000011
S1131BD0000000FFFE0001FFFF0003FFFF8001FF84
S1131BE0FF6000FFFEF0000001F8000001F80000B3
S1131BF001F8000001F8000001F8000001F80000FD
S1131C0001F8000001F8000001F8000001F80000EC
S1131C1001F8000001F8000001F8000001F80000DC
S1131C20007801FFFE1803FFFF880FFFFFE027FF86
S1131C30FFC039FFFF003E0000003F0000003F00EE
S1131C4000003F0000003F0000003F0000003F0094
S1131C5000003F0000003F0000003F0000003F0084
S1131C6000003F0000003F0000003F0000003F0074
S1131C7000001E0000000CFFFE0001FFFF0003FF38
S1131C80FF8001FFFF0000FFFE00000000000000D5
S1131C900000000000000000000000FFFE0001FF43
S1131CA0FF0003FFFF8001FFFF6000FFFEF0000064
S1131CB001F8000001F8000001F8000001F800003C
S1131CC001F8000001F8000001F8000001F800002C
S1131CD001F8000001F8000001F8000001F800001C
S1131CE001F8000001F80000007801FFFE1803FF6E
S1131CF0FF880FFFFFE007FFFFC001FFFF18000090
S1131D000078000001F8000001F8000001F800006C
S1131D1001F8000001F8000001F8000001F80000DB
S1131D2001F8000001F8000001F8000001F80000CB
S1131D3001F8000001F8000001F8000000F000FFC5
S1131D40FE6001FFFF0003FFFF8001FFFF0000FFB3
S1131D50FE00000000000000000000000000000081
S1131D60000000000000000000000000000000006F
S1131D7000600C0000F01E0001F83F0001F83F0075
S1131D8001F83F0001F83F0001F83F0001F83F006F
S1131D9001F83F0001F83F0001F83F0001F83F005F
S1131DA001F83F0001F83F0001F83F0001F83E0050
S1131DB0007839FFFE1823FFFF880FFFFFE007FFBD
S1131DC0FFC001FFFF1800000078000001F80000C8
S1131DD001F8000001F8000001F8000001F800001B
S1131DE001F8000001F8000001F8000001F800000B
S1131DF001F8000001F8000001F8000001F80000FB
S1131E0001F8000000F00000006000000000000085
S1131E1000000000000000000000000000000000BE
S1131E200000000000000000000000FFFE0001FFB1
S1131E30FF0003FFFF8001FFFF000CFFFE001E00F8
S1131E4000003F0000003F0000003F0000003F0092
S1131E5000003F0000003F0000003F0000003F0082
S1131E6000003F0000003F0000003F0000003F0072
S1131E7000003F0000003E00000039FFFE0023FF89
S1131E80FF800FFFFFE007FFFFC001FFFF18000006
S1131E900078000001F8000001F8000001F80000DB
S1131EA001F8000001F8000001F8000001F800004A
S1131EB001F8000001F8000001F8000001F800003A
S1131EC001F8000001F8000001F8000000F000FF34
S1131ED0FE6001FFFF0003FFFF8001FFFF0000FF22
S1131EE0FE000000000000000000000000000000F0
S1131EF0000000FFFE0001FFFF0003FFFF8001FF61
S1131F00FF000CFFFE001E0000003F0000003F0029
S1131F1000003F0000003F0000003F0000003F00C1
S1131F2000003F0000003F0000003F0000003F00B1
S1131F3000003F0000003F0000003F0000003E00A2
S1131F40000039FFFE0023FFFF800FFFFFE027FFA3
S1131F50FFC039FFFF183E0000783F0001F83F0042
S1131F6001F83F0001F83F0001F83F0001F83F008D
S1131F7001F83F0001F83F0001F83F0001F83F007D
S1131F8001F83F0001F83F0001F83F0001F83F006D
S1131F9001F81E0000F00CFFFE6001FFFF0003FFCC
S1131FA0FF8001FFFF0000FFFE00000000000000B2
S1131FB00000000000000000000000FFFE0001FF20
S1131FC0FF0003FFFF8001FFFF6000FFFEF0000041
S1131FD001F8000001F8000001F8000001F8000019
S1131FE001F8000001F8000001F8000001F8000009
S1131FF001F8000001F8000001F8000001F80000F9
S113200001F8000001F8000000780000001800004A
S1132010000800000000000000000000001800009C
S11320200078000001F8000001F8000001F8000049
S113203001F8000001F8000001F8000001F80000B8
S113204001F8000001F8000001F8000001F80000A8
S113205001F8000001F8000001F8000000F00000A1
S1132060006000000000000000000000000000000C
S1132070000000000000000000000000000000005C
S1132080000000FFFE0001FFFF0003FFFF8001FFCF
S1132090FF600CFFFEF01E0001F83F0001F83F0056
S11320A001F83F0001F83F0001F83F0001F83F004C
S11320B001F83F0001F83F0001F83F0001F83F003C
S11320C001F83F0001F83F0001F83F0001F83E002D
S11320D0007839FFFE1823FFFF880FFFFFE027FF7A
S11320E0FFC039FFFF183E0000783F0001F83F00B1
S11320F001F83F0001F83F0001F83F0001F83F00FC
S113210001F83F0001F83F0001F83F0001F83F00EB
S113211001F83F0001F83F0001F83F0001F83F00DB
S113212001F81E0000F00CFFFE6001FFFF0003FF3A
S1132130FF8001FFFF0000FFFE0000000000000020
S11321400000000000000000000000FFFE0001FF8E
S1132150FF0003FFFF8001FFFF600CFFFEF01E0085
S113216001F83F0001F83F0001F83F0001F83F008B
S113217001F83F0001F83F0001F83F0001F83F007B
S113218001F83F0001F83F0001F83F0001F83F006B
S113219001F83F0001F83E00007839FFFE1823FFE4
S11321A0FF880FFFFFE007FFFFC001FFFF180000DB
S11321B00078000001F8000001F8000001F80000B8
S11321C001F8000001F8000001F8000001F8000027
S11321D001F8000001F8000001F8000001F8000017
S11321E001F8000001F8000001F8000000F000FF11
S11321F0FE6001FFFF0003FFFF8001FFFF0000FFFF
S1132200FE0000000000000000001010205F00002D
S113221000000000000000000000000000000000BA
S113222000000000000000000000000000000000AA
S1132230000007000F800F800F800F800F800700C1
S1132240070000000000070007000700000000006E
S11322500E380E380E380E3806300000000000002C
S1132260000000000000000000000000000000006A
S11322700C300C300C307FFE7FFE0C300C300C30F8
S11322800C307FFE7FFE0C300C300C300000000060
S1132290024002400FF81FF81A401A401FF00FF8CE
S11322A0025802581FF81FF00240024000000000CC
S11322B0000000000E100E300E7000E001C003801C
S11322C007000E700C700870000000000000000091
S11322D000000F001980198019800F000F080F9853
S11322E019F818F018E019F00F9800000000000029
S11322F000000700070007000E00000000000000B7
S113230000000000000000000000000000000000C9
S1132310000000F001C0038007000E000E000E0054
S11323200E000700038001C000F000000000000060
S113233000000F00038001C000E000700070007016
S1132340007000E001C003800F00000000000000E6
S1132350000001801188099007E007E03FFC3FFC82
S113236007E007E0099011880180000000000000E8
S11323700000000000000180018001800FF00FF0D8
S113238001800180018000000000000000000000C6
S11323900000000000000000000000000000000039
S11323A0000000000700070007000E000000000006
S11323B00000000000000000000000001FF81FF8EB
S11323C00000000000000000000000000000000009
S11323D000000000000000000000000000000000F9
S11323E000000000070007000700000000000000D4
S11323F0000000020006000E001C0038007000E01F
S113240001C0038007000E001C0000000000000053
S113241000000FF01C381C781CF81CF81DB81DB8FF
S11324201F381F381E381C380FF000000000000051
S113243000000180018003801F801F8003800380CF
S113244003800380038003801FF00000000000006D
S113245000000FE01C701C380038007000E001C060
S1132460038007000E381C381FF80000000000002D
S113247000000FE01C701C380038007003C003C05B
S1132480007000381C381C700FE0000000000000D1
S1132490000000E001E003E006E00CE018E01FF8B3
S11324A01FF800E000E000E003F800000000000076
S11324B000001FF81C001C001C001C001FE01FF083
S11324C0007800381C381C700FE000000000000089
S11324D0000003E007000E001C001C001FF01FF8A2
S11324E01C381C381C381C380FF000000000000099
S11324F000001FFC1C1C1C1C1C1C001C0038007051
S113250000E001C00380038003800000000000009D
S113251000000FF01C381C381C381F3807E007E097
S11325201CF81C381C381C380FF000000000000098
S113253000000FF01C381C381C381C381FF80FF82A
S113254000380038007000E007C000000000000000
S113255000000000000003800380038000000000EE
S113256003800380038000000000000000000000DE
S113257000000000000003800380038000000000CE
S113258003800380038007000000000000000000B7
S1132590007000E001C0038007000E001C001C0056
S11325A00E000700038001C000E00070000000007E
S11325B000000000000000003FFC3FFC00000000A1
S11325C03FFC3FFC00000000000000000000000091
S11325D01C000E000700038001C000E000700070C2
S11325E000E001C0038007000E001C000000000092
S11325F003C00FF01E7818380038007000E001C0E6
S113260001C00000000001C001C001C000000000C2
S11326100FF81C1C1C1C1C1C1C1C1CFC1CFC1CFC87
S11326201CFC1C001C001C001FF007F8000000002C
S1132630000003C007E00E701C381C381C381C381E
S11326401FF81C381C381C381C380000000000001F
S113265000001FF00E380E380E380E380FF00FF051
S11326600E380E380E380E381FF00000000000003F
S1132670000007F00E381C381C001C001C001C0055
S11326801C001C001C380E3807F00000000000007D
S113269000001FE00E700E380E380E380E380E385B
S11326A00E380E380E380E701FE0000000000000D7
S11326B000001FF80E180E080E000E300FF00FF079
S11326C00E300E000E080E181FF800000000000067
S11326D000001FF80E180E080E000E300FF00FF059
S11326E00E300E000E000E001F000000000000005F
S11326F0000007F00E381C381C381C001C001C009D
S11327001CF81C381C380E3807F8000000000000C4
S113271000001C701C701C701C701C701FF01FF0DB
S11327201C701C701C701C701C70000000000000E9
S113273000000FE003800380038003800380038094
S113274003800380038003800FE00000000000008A
S1132750000001FC007000700070007000700070D8
S113276038703870387038700FE0000000000000D6
S113277000001E380E380E700EE00FC00F800F8060
S11327800FC00EE00E700E381E380000000000006E
S113279000001F000E000E000E000E000E000E00C2
S11327A00E000E080E180E381FF80000000000007E
S11327B000001C1C1E3C1F7C1FFC1FFC1DDC1C9C01
S11327C01C1C1C1C1C1C1C1C1C1C000000000000ED
S11327D000001C1C1C1C1E1C1F1C1F9C1DDC1CFC44
S11327E01C7C1C3C1C1C1C1C1C1C0000000000004D
S11327F0000003E007F00E381C1C1C1C1C1C1C1CD5
S11328001C1C1C1C0E3807F003E000000000000034
S113281000001FF00E380E380E380E380FF00FF08F
S11328200E000E000E000E001F000000000000004D
S1132830000003E00F780E381C1C1C1C1C1C1C1C04
S11328401C7C1CFC0FF80FF8003800FC0000000092
S113285000001FF00E380E380E380E380FF00FF04F
S11328600E700E380E380E381E38000000000000BE
S113287000000FF01C381C381C381C000FE007F057
S113288000381C381C381C380FF000000000000011
S113289000001FFC19CC11C401C001C001C001C05B
S11328A001C001C001C001C007F000000000000029
S11328B000001C701C701C701C701C701C701C7040
S11328C01C701C701C701C700FE0000000000000E5
S11328D000001C701C701C701C701C701C701C7020
S11328E01C701C700EE007C0038000000000000094
S11328F000001C1C1C1C1C1C1C1C1C1C1C9C1C9C4C
S11329001C9C0FF80FF8077007700000000000000F
S113291000001C701C701C700EE007C00380038054
S113292007C00EE01C701C701C700000000000004A
S113293000001C701C701C701C701C700EE007C022
S113294003800380038003800FE000000000000088
S113295000001FF81C381838107000E001C0038014
S113296007000E081C181C381FF8000000000000A7
S1132970000007F007000700070007000700070032
S1132980070007000700070007F000000000000030
S11329900000100018001C000E000700038001C096
S11329A000E000700038001C000700000000000078
S11329B0000007F00070007000700070007000707C
S11329C0007000700070007007F00000000000004C
S11329D0018003C007E00E701C38000000000000F6
S11329E000000000000000000000000000000000E3
S11329F000000000000000000000000000000000D3
S1132A00000000000000000000007FFF7FFF0000C6
S1132A1000001C001C00070007000000000000006C
S1132A2000000000000000000000000000000000A2
S1132A30000000000000000000000FE000700070C3
S1132A400FF01C701C701C700FD8000000000000F8
S1132A5000001E000E000E000E000FF00E380E389F
S1132A600E380E380E380E381BF00000000000003F
S1132A70000000000000000000000FE01C701C704B
S1132A801C001C001C701C700FE000000000000003
S1132A90000000F80070007000700FF01C701C70D3
S1132AA01C701C701C701C700FD80000000000000B
S1132AB0000000000000000000000FE01C701C700B
S1132AC01FF01C001C701C700FE0000000000000D0
S1132AD0000003E007700770070007001FE01FE015
S1132AE007000700070007001FC0000000000000E7
S1132AF0000000000000000000000FD81C701C70D3
S1132B001C701C700FF007F000701C700FE00000C8
S1132B1000001E000E000E000E000EF00F380F38DD
S1132B200E380E380E380E381E3800000000000033
S1132B30000001C001C001C000000FC001C001C0FD
S1132B4001C001C001C001C00FF800000000000076
S1132B500000007000700070000003F0007000704E
S1132B6000700070007000701C700CF007E0000032
S1132B7000001E000E000E000E000E380E700EE057
S1132B800FC00EE00E700E381E380000000000006A
S1132B9000000FC001C001C001C001C001C001C0DC
S1132BA001C001C001C001C00FF800000000000016
S1132BB0000000000000000000001FF81C9C1C9C8A
S1132BC01C9C1C9C1C9C1C9C1C9C00000000000069
S1132BD0000000000000000000001FE01C701C70DA
S1132BE01C701C701C701C701C7000000000000025
S1132BF0000000000000000000000FE01C701C70CA
S1132C001C701C701C701C700FE0000000000000A1
S1132C10000000000000000000001BF00E380E3819
S1132C200E380E380E380FF00E000E001F00000094
S1132C30000000000000000000001FB038E038E091
S1132C4038E038E038E01FE000E000E001F0000088
S1132C50000000000000000000001EF00FF80F3814
S1132C600E000E000E000E001F0000000000000009
S1132C70000000000000000000000FE01C301C30C9
S1132C800F8003E0187018700FE0000000000000CF
S1132C90000000000100030007001FF00700070008
S1132CA0070007000770077003E000000000000041
S1132CB0000000000000000000001C701C701C706C
S1132CC01C701C701C701C700FD8000000000000E9
S1132CD0000000000000000000001C701C701C704C
S1132CE01C701C700EE007C0038000000000000090
S1132CF0000000000000000000001C1C1C1C1C1C28
S1132D001C9C1C9C0FF8077007700000000000005A
S1132D10000000000000000000001CE01CE00FC0E8
S1132D20078007800FC01CE01CE0000000000000CA
S1132D30000000000000000000000E380E380E38BD
S1132D400E380E3807F003E000E001C01F800000D9
S1132D50000000000000000000001FE018E011C0A7
S1132D60038007000E201C601FE00000000000002C
S1132D70000001F803800380038007001C001C008E
S1132D80070003800380038001F8000000000000B6
S1132D9001C001C001C001C001C001C001C001C027
S1132DA001C001C001C001C001C001C00000000099
S1132DB000001F8001C001C001C000E000380038DD
S1132DC000E001C001C001C01F800000000000003D
S1132DD000001F1C3B9C39DC38F800000000000098
S1132DE00000000000000000000000000000080CCB
S1132DF0205F000000000000000000000000000050
S1132E002020202020200020000000285050000016
S1132E1000000000000000002828FC2850FC50504E
S1132E200000002078A8A0603028A8F0200000004E
S1132E3048A8B0502834544800000000205050786E
S1132E40A8A8906C00000040408000000000000032
S1132E5000000004081010101010100804000040B6
S1132E602010101010101020400000000020A87046
S1132E7070A8200000000000202020F8202020005E
S1132E80000000000000000000000040408000003E
S1132E90000000F800000000000000000000000036
S1132EA000000040000000081010102020404040A6
S1132EB0800000007088888888888870000000007E
S1132EC020602020202020700000000070888810DE
S1132ED0204080F8000000007088083008088870DE
S1132EE000000000103050509078101800000000CE
S1132EF0F88080F00808887000000000709080F06E
S1132F008888887000000000F8901020202020207D
S1132F1000000000708888708888887000000000B5
S1132F20708888887808487000000000000020003D
S1132F30000000200000000000000020000000202D
S1132F4020000004081020402010080400000000A5
S1132F500000F80000F80000000000402010080401
S1132F6008102040000000007088881020200020F5
S1132F7000000000708898A8A8B8807800000000BD
S1132F8020203050507848CC00000000F0484870B1
S1132F90484848F00000000078888080808088706D
S1132FA000000000F0484848484848F0000000008D
S1132FB0F8485070504048F800000000F84850703D
S1132FC0504040E000000000384880809C88483031
S1132FD000000000CC484878484848CC0000000075
S1132FE0F8202020202020F8000000007C10101081
S1132FF010101090E0000000EC485060505048EC75
S113300000000000E0404040404044FC000000005C
S1133010D8D8D8D8A8A8A8A800000000DC486868B8
S1133020585848E8000000007088888888888870AC
S113303000000000F0484870404040E000000000FC
S11330407088888888E8987018000000F0484870F4
S1133050504848EC0000000078888060100888F030
S113306000000000F8A820202020207000000000AC
S1133070CC4848484848483000000000CC484850F4
S11330805030202000000000A8A8A87050505050D4
S113309000000000D8505020205050D800000000FC
S11330A0D85050202020207000000000F8901020FC
S11330B0204048F800000038202020202020202034
S11330C0380000404040202010101008000000701C
S11330D0101010101010101070000020500000008C
S11330E000000000000000000000000000000000DC
S11330F000FC0020000000000000000000000000B0
S1133100000000304838483C00000000C0404070D7
S1133110484848700000000000000038484040382B
S113312000000000180808384848483C0000000027
S11331300000003048784038000000001C2020784F
S113314020202078000000000000003C4830407837
S113315044380000C0404070484848EC000000007B
S113316020000060202020700000000010000030CB
S11331701010101010E00000C040405C507048EC8B
S113318000000000E0202020202020F800000000A3
S1133190000000F0A8A8A8A800000000000000F0AB
S11331A0484848EC0000000000000030484848301F
S11331B000000000000000F04848487040E00000B3
S11331C00000003848484838081C0000000000D8B7
S11331D0604040E0000000000000007840300878C3
S11331E000000000002020702020201800000000B3
S11331F0000000D84848483C00000000000000ECF3
S11332004850302000000000000000A8A870505072
S113321000000000000000D8502050D8000000003A
S1133220000000EC4850302020C00000000000786E
S1133230102020780000001810101020101010101A
S11332401800101010101010101010101010006042
S11332502020201020202020600040A4180000001E
S113326000000000000036339A39AD3311241FBE2C
S1133270CFEFD1E2DEBFCDBF00E00CBF15E0A0E090
S1133280B2E0E6E7F9EB00E00BBF02C007900D9255
S1133290A030B107D9F72CE0A0E0B5E001C01D9241
S11332A0A330B207E1F719E1C5E3D9E100E006C0B4
S11332B021970109802FFE010E94135AC333D107BD
S11332C080E00807A9F70E94C8390C94AA5C0C9402
S11332D00000E091640591E09E0F90936405F0E096
S11332E0E050FB4F80838A3089F48091650590918A
S11332F06605892B39F0E0916505F091660580E05B
S113330095E0199510920005109264050895909324
S11333106605809365050895EF920F93EE24E39478
S113332001E021E041E060E07DE280E090E00E9485
S1133330323489E699E10F91EF900C944834CF929E
S1133340DF92EF92FF920F931F93CF93DF93CDB74A
S1133350DEB78C01EDB6FEB6FC0101900020E9F762
S1133360CF01801B910B01962DB73EB7281B390B5B
S11333700FB6F8943EBF0FBE2DBF8DB79EB7019612
S11333806C01B8010E94595CF80101900020E9F732
S11333903197E01BF10BEC0DFD1D8CE38183C6011D
S11333A00E9458340FB6F894FEBE0FBEEDBEDF91F6
S11333B0CF911F910F91FF90EF90DF90CF900895E0
S11333C081E008950F931F93CF93DF938C01EB015A
S11333D00E94A25C8883C80101960E94A25C898332
S11333E0CE01DF91CF911F910F910895CF93DF9379
S11333F0EC011982188284EF91E09B838A831D82F9
S11334001C829F838E83198618869B878A871D86D4
S11334101C869F878E871DA21CA288279927861B3E
S1133420970B99A388A37BA36AA360E086E30E9419
S1133430653C60E087E30E94653C60E088E30E94AD
S1133440653C60E089E30E94653C1DA21CA2BE01AC
S11334506A5F7F4F80E090E0B5DF8CA19DA102966A
S11334609DA38CA3BE01625F7F4FACDF8CA19DA1A5
S113347002969DA38CA3BE016E5F7F4FA3DF8CA138
S11334809DA102969DA38CA3BE01665F7F4F9ADF28
S11334908CA19DA102969DA38CA3BE016C5F7F4F5E
S11334A091DF8CA19DA102969DA38CA3BE01645FB4
S11334B07F4F88DF8CA19DA102969DA38CA3BE01A2
S11334C081DF8CA19DA102969DA38CA3BE01685FA0
S11334D07F4FDF91CF9176CF08954F925F926F9295
S11334E07F928F929F92AF92BF92CF92DF92EF9290
S11334F0FF920F931F93CF93DF934C01EB0186E36D
S11335000E94EA3B9D8B8C8B87E30E94EA3B9F8B56
S11335108E8B88E30E94EA3B998B888B89E30E9417
S1133520EA3B9B8B8A8BEC80FD800F2C000C000BFC
S1133530110B2E813F81032E000C440B550B68891F
S11335407989072E000C880B990B77247A947F9243
S11335507F927F92ECE96E2E6F92F4E6AF2EB12C3F
S1133560C12CD12C0E94D03C798F688FE880F980DF
S11335700F2C000C000B110B2A813B81032E000C35
S1133580440B550B6A897B89072E000C880B990B19
S11335901F921F921F92E4E6EF93ACE9AA2EBB247C
S11335A0BA94CB2CDB2C0E94D03C7B8F6A8FEC84AA
S11335B0FD840F2C000C000B110B2E853F85032E70
S11335C0000C440B550B6C897D89072E000C880B6D
S11335D0990B7F927F927F926F92B4E6AB2EB12CBF
S11335E0C12CD12C0E94D03C7D8F6C8FE884F9844F
S11335F00F2C000C000B110B2A853B85032E000CAD
S1133600440B550B6E897F89072E000C880B990B90
S11336107F927F927F926F920E94D03C8B017F8F2A
S11336206E8F288D398D4AA15BA1EDB7FEB77096D8
S11336300FB6F894FEBF0FBEEDBF421753073CF020
S1133640E8A1F9A12E173F0714F0198E188E2A8DC0
S11336503B8D421753073CF0E8A1F9A12E173F0711
S113366014F01B8E1A8E2C8D3D8D421753079CF03F
S1133670E8A1F9A12E173F0774F01D8E1C8E401788
S113368051070CF4E5C088A199A10817190734F073
S11336901F8E1E8E03C040175107ACF7EC8CFD8CB7
S11336A00E8D1F8DEE9CB001EF9C700D700D1124DA
S11336B0009FC001019F900D900D1124680F791F88
S11336C0072E000C880B990B0E94E1350E94773776
S11336D02B013C01F4016087718782879387F7FC93
S11336E00DC0B801110F880B990B0E94E135A3019D
S11336F092010E9446350E94CC3414C0B801110FC7
S1133700880B990B0E94E135A30192010E94463572
S11337100E94CC349B01AC016BED7FE089EC90E41A
S11337200E94DA34F401648775878687978720E0DE
S113373030E0A901C301B2010E943F35811106C0E6
S1133740F401148615861686178616C020E030E428
S11337504EE755E4F40164857585868597850E9456
S11337600A3720E030E04EE852E40E944635F40186
S11337706487758786879787088D198D0A8CDB8DFA
S1133780C02D009FB001019F700D700D1124CC9FBE
S1133790C001CD9F900D900D1124680F791F072E45
S11337A0000C880B990B0E94E1350E9477372B019E
S11337B03C01F4016083718382839383BE01DD0F36
S11337C0880B990B17FD09C00E94E135A3019201F2
S11337D00E9446350E94CC3410C00E94E135A301FA
S11337E092010E9446350E94CC349B01AC016BEDE2
S11337F07FE089EC90E40E94DA34F40164837583F9
S11338008683978320E030E0A901C301B2010E94BE
S11338103F35811106C0F401148215821682178285
S11338202DC020E030E44EE755E4F4016481758155
S1133830868197810E940A3720E030E04EE852E406
S11338400E944635F401648375838683978316C08A
S1133850669F9001679F300D300D1124B901330F1D
S1133860880B990B0E94E1350E9477372B013C01AC
S1133870F401608771878287938733CFC401DF9116
S1133880CF911F910F91FF90EF90DF90CF90BF9059
S1133890AF909F908F907F906F905F904F9008951E
S11338A00F931F93CF93DF931F92CDB7DEB78C0195
S11338B086E369830E94EA3BF801958B848B87E356
S11338C00E94EA3BF801978B868B88E30E94EA3BCF
S11338D0F801918B808B89E30E94EA3BF801938B7A
S11338E0828B6981662381F0118210821382128295
S11338F01582148217821682118610861386128608
S11339001586148617861686F801208131812817BA
S113391039071CF49183808347C0F80122813381E5
S1133920821793071CF4938382833EC0F801808935
S1133930918924813581281739071CF49583848360
S113394033C0F80126813781821793071CF49783CB
S113395086832AC0F80186899789208531852817AE
S113396039071CF4918780871FC0F80122853385AD
S1133970821793071CF49387828716C0F801848901
S1133980958924853585281739071CF495878487FC
S11339900BC0F80126853785821793071CF4978797
S11339A0868702C08FEF9FEF0F90DF91CF911F9119
S11339B00F9108950F931F93CF93DF93EC01209100
S11339C0460A2F3098F436E0239FC0011124BE012B
S11339D0895B954F0E94903D8091460A8F5F80934A
S11339E0460ADF91CF911F910F91089587E49AE0E1
S11339F08C010A5F1F4FB8010E94903DC8010B590A
S1133A001A40B1F7BE018BE99AE0DF91CF911F9183
S1133A100F910C94903D1F93CF93DF93CDB7DEB7F6
S1133A20A0970FB6F894DEBF0FBECDBF182F87E066
S1133A30E7E0F2E0DE01119601900D928A95E1F73C
S1133A40FE01389683E1DF011D928A95E9F780E350
S1133A50810F8F831886662319F061EC72E002C02F
S1133A6063ED72E0CE0101960E944E5CBE016F5F71
S1133A707F4FCE014B960E947C3DCE014B969ADF40
S1133A80CE014B960E94113DB8E11B02F0011124B6
S1133A90E457FA4F81E08283A0960FB6F894DEBF14
S1133AA00FBECDBFDF91CF911F910895CF92DF92CA
S1133AB0EF92FF920F931F93CF93DF93CDB7DEB7AF
S1133AC062970FB6F894DEBF0FBECDBF2FEF4FEF56
S1133AD06FEF84E09BE00E94974D6EEE7DE284E000
S1133AE09BE00E94F15720E040E060E084E09BE02E
S1133AF00E94AB4DD12C36E0C32E8091460AD816D5
S1133B0008F05AC0ED2CF12CCE9CB001CF9C700D66
S1133B101124695B754FFB018481958124E0EE0CCF
S1133B20FF1C2A95E1F7899798F4CE0101960E942B
S1133B30A53D00E010E0970140E050E0BE016F5F5A
S1133B407F4F84E09BE00E94C356CE01019630C0B3
S1133B5025E230E040E050E0CE010D960E947D3E2B
S1133B60BE01635F7F4FCE0107960E94A53D66EEBE
S1133B7072E0CE0107960E94193EBC01CE01019667
S1133B800E94A53D00E010E0970140E050E0BE0136
S1133B906F5F7F4F84E09BE00E94C356CE01019685
S1133BA00E94113DCE0107960E94113DCE010D9653
S1133BB00E94113DD394A1CF62960FB6F894DEBF54
S1133BC00FBECDBFDF91CF911F910F91FF90EF906A
S1133BD0DF90CF9008957F928F929F92AF92BF9281
S1133BE0CF92DF92EF92FF920F931F93CF93DF93C5
S1133BF000D000D0CDB7DEB74C01762E8A0120E08C
S1133C0040E06FEF84E09BE00E94974D8FE2809F3D
S1133C107001819FF00C1124A7014F5F5F4F8A014F
S1133C2021E231E060E070E084E09BE00E94A65174
S1133C3062E57EE084E09BE00E94F15720E440E4EA
S1133C4060E484E09BE00E94974D67018FE2C80E18
S1133C50D11CA7014E5F5F4F860121E231E060E095
S1133C6070E084E09BE00E94AB502FEF4FEF6FEFCA
S1133C7084E09BE00E94974D20E440E460E484E00B
S1133C809BE00E94AB4D62E57EE084E09BE00E94F5
S1133C90F157570181E1A80EB11CB401CE01019680
S1133CA00E94A53D00E010E0950140E050E0BE0117
S1133CB06F5F7F4F84E09BE00E94C356CE01019664
S1133CC00E94113D20E040E06FEF84E09BE00E9401
S1133CD0974D860121E231E0A60160E070E084E0C6
S1133CE09BE00E94A65101521109A7014E5D5F4F4E
S1133CF023E131E06FEF70E084E09BE00E94B54F78
S1133D00772021F020E040E06FEF03C020E440E49E
S1133D1060E484E09BE00E94974DA701415E5F4F01
S1133D20850120E131E062E071E084E09BE00E94E3
S1133D30AB5026960FB6F894DEBF0FBECDBFDF9111
S1133D40CF911F910F91FF90EF90DF90CF90BF9094
S1133D50AF909F908F907F9008952F923F924F92B3
S1133D605F926F927F928F929F92AF92BF92CF9207
S1133D70DF92EF92FF920F931F93CF93DF9300D0C4
S1133D8000D0CDB7DEB76C014B018A0120E040E0E2
S1133D906FEF84E09BE00E94974D8FE2809F70015B
S1133DA0819FF00C1124A7014F5F5F4F8A0121E22C
S1133DB031E060E070E084E09BE00E94A65162E59F
S1133DC07EE084E09BE00E94F15720E440E460E45C
S1133DD084E09BE00E94974D57018FE2A80EB11C2E
S1133DE0A7014E5F5F4F850121E231E060E070E0A2
S1133DF084E09BE00E94AB502FEF4FEF6FEF84E025
S1133E009BE00E94974D20E440E460E484E09BE062
S1133E100E94AB4D62E57EE084E09BE00E94F15796
S1133E20B401CE0101960E94A53D97012F5E3F4F3C
S1133E3000E010E040E050E0BE016F5F7F4F84E09F
S1133E409BE00E94C356CE0101960E94113D20E0E2
S1133E5040E06FEF84E09BE00E94974D850121E2F2
S1133E6031E0A50160E070E084E09BE00E94A6518F
S1133E7020E040E06FEF84E09BE00E94974D270133
S1133E8084E2480E511C37018CE0680E711C8201DB
S1133E9028E131E0A30164E071E084E09BE00E944A
S1133EA0464E20E040E060E084E09BE00E94974DB5
S1133EB0470183E2880E911C57018DE0A80EB11CC6
S1133EC0840127E131E0A50165E071E084E09BE035
S1133ED00E94464E2FEF4FEF6FEF84E09BE00E946D
S1133EE0974D20E040E060E084E09BE00E94AB4D11
S1133EF062E57EE084E09BE00E94F15717018FE0C9
S1133F00280E311C00E010E0910146E051E06AEE19
S1133F1072E084E09BE00E941D5620E040E06FEFD9
S1133F2084E09BE00E94974D820123E031E0A301ED
S1133F3066EE70E084E09BE00E94464E20E040E0A4
S1133F4060E084E09BE00E94974D840122E031E030
S1133F50A50167EE70E084E09BE00E94464E2FEFDF
S1133F604FEF6FEF84E09BE00E94974D20E040E02C
S1133F7060E084E09BE00E94AB4D6EEE7DE284E065
S1133F809BE00E94F15700511109A601DD0C660B5C
S1133F90770B80E2C82E93E0E92EF12C29EE30E075
S1133FA084E09BE00E94095720E040E06FEF84E04A
S1133FB09BE00E94974D820125EE30E0A30162ED63
S1133FC070E084E09BE00E94464E20E040E060E028
S1133FD084E09BE00E94974D840124EE30E0A5012B
S1133FE063ED70E084E09BE00E94464E2FEF4FEFBC
S1133FF06FEF84E09BE00E94974D20E040E060E09A
S113400084E09BE00E94AB4D62E57EE084E09BE0AF
S11340100E94F15700E010E0910144ED50E06CEE95
S113402072E084E09BE00E941D5626960FB6F89439
S1134030DEBF0FBECDBFDF91CF911F910F91FF90D7
S1134040EF90DF90CF90BF90AF909F908F907F9034
S11340506F905F904F903F902F9008950F931F9310
S1134060CF93DF93D62F8A014091440A5091450A99
S1134070C8E1C49F9001C59F300D1124F901E45794
S1134080FA4F11821082BC01C90181579A4F0E94D4
S1134090903D8091440A9091450AC89FF001C99FC0
S11340A0F00D1124E457FA4FD18713870287019644
S11340B09093450A8093440ADF91CF911F910F9109
S11340C00895CF92DF92EF92FF920F931F93CF93B5
S11340D07B016A0189014091440A5091450AC8E173
S11340E0C49F9001C59F300D1124F901E457FA4F84
S11340F041E050E051834083BC01C90188569A4F86
S11341000E94903D8091440A9091450AC89FF00115
S1134110C99FF00D1124E457FA4FF38AE28AD58A35
S1134120C48A178B068B01969093450A8093440AA0
S1134130CF911F910F91FF90EF90DF90CF90089552
S1134140EF92FF920F931F93CF93DF9300D000D091
S1134150CDB7DEB781E090E09093410A8093400AA6
S113416000E010E088E1F82E8091440A9091450A1D
S1134170081719070CF04AC0053011050CF043C0AC
S11341802091420A3091430A200F311FF29EC00150
S1134190F39E900D1124FC01E457FA4F20813181E4
S11341A02115310571F4E184BC0161577A4FCE01C8
S11341B001960E94A53DA8016E2DCE0101960BDD4E
S11341C01EC021303105F9F4BC0168567A4FCE0186
S11341D001960E94A53D8091420A9091430A800F66
S11341E0911FF89EF001F99EF00D1124E457FA4F47
S11341F0A801BE016F5F7F4F82899389AEDDCE0136
S113420001960E94113D0F5F1F4FAECFD9D888236E
S113421019F020E04FEF02C02FEF40E060E084E0AF
S11342209BE00E94974D20E04FEF60E084E09BE02C
S11342300E94AB4D04E110E021E930E040E050E0A1
S11342406FEA70E084E09BE00E94464E01E010E0DB
S113425021E930E040E050E06FEA70E084E09BE068
S11342600E94AB5020E040E06FEF84E09BE00E94AE
S1134270974D07E710E02FE331E040E050E06CE2B7
S113428071E084E09BE00E94F94F0FEE10E02FE311
S113429031E049E750E06CE271E084E09BE00E9489
S11342A0F94F20E040E060E084E09BE00E94974DFD
S11342B06EE672E084E09BE00E94F15700E010E0BB
S11342C023E030E04EE057E264EB73E084E09BE0EF
S11342D00E941D562FEF4FEF6FEF84E09BE00E948A
S11342E0974D20E040E060E084E09BE00E94AB4D0D
S11342F06EE672E084E09BE00E94F1572CE330E02C
S11343004FE251E06AEF74E084E09BE00E941D56A6
S113431024EB30E04FE251E06EEE72E084E09BE08B
S11343200E941D5620E040E06FEF84E09BE00E9475
S1134330974D02EF10E023EB30E042ED50E06AE8E5
S113434070E084E09BE00E94F94F20E440E460E4E4
S113435084E09BE00E94974D01EF10E022EB30E0F7
S113436043ED50E06BE870E084E09BE00E94464E31
S11343702FEF4FEF6FEF84E09BE00E94974D6EEEBE
S11343807DE284E09BE00E94F15720E440E460E495
S113439084E09BE00E94AB4D00E010E020EE30E0B2
S11343A04EE057E260EF72E084E09BE00E941D560D
S11343B020E040E06FEF84E09BE00E94974D00EF27
S11343C010E02AE231E040E050E062E271E084E093
S11343D09BE00E94B54F20E040E060E084E09BE079
S11343E00E94974D0FEE10E029E231E041E050E0E9
S11343F063E271E084E09BE00E94AB508091440A48
S11344009091450A069774F128EC48EC68EC84E036
S11344109BE00E94974D6091440A7091450A8EEE8C
S113442090E00E94C2598091420A9091430A689F89
S1134430A001699F500D789F500D112485E0869F3F
S11344408001879F100D11240F5F1F4F040F151F4C
S11344504F5F5F4F29E231E063E271E084E09BE06B
S11344600E94464E26960FB6F894DEBF0FBECDBF0F
S1134470DF91CF911F910F91FF90EF9008950F93CB
S11344801F9382E090E09093410A8093400A84E075
S11344909BE00E94FD4C0ADB20E040E06FEF84E0EB
S11344A09BE00E94974D02EF10E02FE331E042EDD4
S11344B050E068E171E084E09BE00E94F94F2FE353
S11344C031E042ED50E062E271E084E09BE00E9462
S11344D0B54F20E440E460E484E09BE00E94974D03
S11344E001EF10E02FE331E043ED50E069E171E0CA
S11344F084E09BE00E94464E2FE331E043ED50E020
S11345006CE271E084E09BE00E94AB502FEF4FEF30
S11345106FEF84E09BE00E94974D6EEE7DE284E0B5
S11345209BE00E94F15720E440E460E484E09BE0D7
S11345300E94AB4D00E010E020EE30E04FE057E287
S113454064EF72E084E09BE00E941D561F910F917E
S113455008950F931F93CF93DF93CDB7DEB768977A
S11345600FB6F894DEBF0FBECDBF8C0169EF72E0C9
S1134570CE0101960E947C3DCE0101961BDACE014C
S113458001960E94113DF8018081813491F46BEF12
S113459072E0CE0101960E947C3DCE0101960ADABA
S11345A0CE0101960E94113D109287051092880554
S11345B0E3C0B801CE0143960E947C3D60E070E008
S11345C0CE0143960E944D3E813009F0A4C06DEFA8
S11345D072E0CE0101960E947C3DCE010196EAD99B
S11345E0CE0101960E94113D61E070E0CE01439638
S11345F00E944D3E813309F058C062E070E0CE0164
S113460043960E944D3E182F63E070E0CE0143961E
S11346100E944D3E212F30E02053310994E6929FB1
S11346208001939F100D112490E0C0974AE0489FA9
S11346309001499F300D1124020F131F64E070E0B4
S1134640CE0143960E944D3E90E0C097080F191F7B
S11346502F89388D45E050E0BE016D5E7F4FCE015D
S113466001960E947D3E25E93AE241E050E0B8011E
S1134670CE01019626DDCE0101960E94113D62E134
S113468073E0CE0101960E947C3DCE01019692D941
S1134690CE0101960E94113D8091400A9091410AF9
S11346A0019709F065C04CDD63C061E070E0CE01A4
S11346B043960E944D3E803311F562E070E0CE01D6
S11346C043960E944D3E182F2F89388D43E050E0C9
S11346D0BE016D5E7F4FCE0101960E947D3E61E07A
S11346E0103309F460E04BE05DE1CE010196B6DCE5
S11346F0CE0101960E94113D6AE273E0C2CF6BE3E2
S113470073E0CE0101960E947C3DCE01019652D900
S1134710CE0101962BC06AE573E0CE010D960E948E
S11347207C3DBE01635F7F4FCE0107960E94A53D8D
S113473060E0CE0107960E94303E6CE074E00E9477
S1134740193EB8010E94193EBC01CE0101960E9497
S1134750A53DCE0101962ED9CE0101960E94113DB0
S1134760CE0107960E94113DCE010D960E94113D87
S1134770CE0143960E94113D8091400A9091410AD6
S1134780029709F47CDE68960FB6F894DEBF0FBE7C
S1134790CDBFDF91CF911F910F9108956F927F92BA
S11347A08F929F92AF92BF92CF92DF92EF920F932C
S11347B01F93CF93DF936C01EB013A015901480138
S11347C020E040E060E084E09BE00E94974D85019A
S11347D001501109930121503109AE014F5F5F4F20
S11347E0B6016F5F7F4F84E09BE00E94464E2FEF3F
S11347F04FEF6FEF84E09BE00E94974D20E040E094
S113480060E084E09BE00E94AB4D81E0E81219C0B7
S113481066E37AE184E09BE00E94F15795012C1B4A
S11348203D0B37FF02C02F5F3F4F359527952C0F67
S11348303D1F2851310900E010E0A6014A5E5F4F98
S113484036C0E11019C06AE072E284E09BE00E9485
S1134850F15795012C1B3D0B37FF02C02F5F3F4FD3
S1134860359527952C0F3D1F2850310900E010E0A5
S1134870A6014B5F5F4F1BC082E0E8121DC06EEEC5
S11348807DE284E09BE00E94F15795012C1B3D0BD7
S113489037FF02C02F5F3F4F359527952C0F3D1FE3
S11348A02550310900E010E0A601495F5F4FB401D3
S11348B084E09BE00E941D5620E040E06FEF84E01E
S11348C09BE00E94974D85019301AE01B60184E0FF
S11348D09BE00E94F94FDF91CF911F910F91EF90D0
S11348E0DF90CF90BF90AF909F908F907F906F900C
S11348F00895EF920F931F9383E090E09093410A01
S11349008093400A84E09BE00E94FD4C82E0E82E04
S113491003E813E02CE330E04CE251E064E170E0A2
S113492084E190E03BDF0EE913E02EE630E04CE258
S113493051E066E470E084E190E030DF06EB13E0E0
S113494020EA30E04CE251E068E770E084E190E076
S113495025DF01ED13E020EF30E044E650E068ECA1
S113496070E081E090E01ADF1F910F91EF900895BD
S1134970AF92BF92CF92DF92EF92FF920F931F9369
S1134980CF93DF93EC017B016A0159012FEF40E0E3
S113499060E084E09BE00E94974D85019601A701A9
S11349A0BE0184E09BE00E94F94F89EC9AE00E94EA
S11349B07941882329F089EC9AE00E94D63FF5CF0B
S11349C02FEF4FEF6FEF84E09BE00E94974D85013E
S11349D09601A701BE0184E09BE00E94F94FDF919C
S11349E0CF911F910F91FF90EF90DF90CF90BF90E8
S11349F0AF900895AF92BF92CF92DF92EF92FF9261
S1134A000F931F93CF93DF93EC0184E090E0909396
S1134A10410A8093400A20E04FEF60E084E09BE08D
S1134A200E94974D6AE072E284E09BE00E94F15795
S1134A3020E040E060E084E09BE00E94AB4DAE01EA
S1134A400D2E000C660B770B90E2C92EE12CF12C95
S1134A5000E010E020E030E084E09BE00E94095791
S1134A60EE24E39409ED14E023E430E04BE450E059
S1134A7061E170E080E090E091DE0AED13E023E470
S1134A8030E04BE950E061E170E080E590E086DEE3
S1134A900CED13E023E430E04BEE50E061E170E014
S1134AA080EA90E07BDE0EED13E023E430E04BE39C
S1134AB051E061E170E080EF90E070DE00EE13E021
S1134AC02AE730E04BE450E068E470E080E090E0F6
S1134AD065DE02EE13E02AE730E04BE950E068E4DB
S1134AE070E080E590E05ADE04EE13E02AE730E05F
S1134AF04BEE50E068E470E080EA90E04FDE06EEB2
S1134B0013E02AE730E04BE351E068E470E080EF23
S1134B1090E044DEE12C08EE13E021EB30E04BE4BE
S1134B2050E06FE770E080E090E038DEEE24E3943C
S1134B300CEE13E021EB30E04BE950E06FE770E05E
S1134B4080E590E02BDE0EEE13E021EB30E04BEE3F
S1134B5050E06FE770E080EA90E020DEE12C00EFA7
S1134B6013E021EB30E04BE351E06FE770E080EFBE
S1134B7090E014DE04EF13E028EE30E04BE950E05F
S1134B8066EB70E080E090E009DE0BEF13E028EEC6
S1134B9030E04FE351E066EB70E080EA90E0FEDD48
S1134BA020E040E06FEF84E09BE00E94974D2AE014
S1134BB0A22EB12C3AE0D32E89EC9AE00E947941DE
S1134BC08823D1F389EC9AE00E94D63F89EC9AE0DD
S1134BD00E94904190933F0A80933E0A89EC9AE0A8
S1134BE00E94574290933D0A80933C0A20913E0ACA
S1134BF030913F0A37FDBAC0813191050CF499C058
S1134C002C3431055CF5843491050CF096C023E412
S1134C1030E04BE450E061E170E080E090E0A8DE39
S1134C2020E040E06FEF84E09BE00E94974D03E4B6
S1134C3010E02BE430E041E150E060E070E084E01B
S1134C409BE00E94F94FC436D105D4F5DC9EC00127
S1134C50DD9E900D1124EC01219632C020353105E2
S1134C600CF46BC02C3931050CF075C084349105FB
S1134C700CF07CC023E430E04BE950E061E170E0EB
S1134C8080E590E075DE20E040E06FEF84E09BE09B
S1134C900E94974D03E410E02BE930E041E150E03D
S1134CA060E570E084E09BE00E94F94FC436D105D2
S1134CB03CF4DC9EC001DD9E900D1124EC01229693
S1134CC020E040E060E084E09BE00E94974D00E13A
S1134CD010E02CE330E040E050E060E070E084E07D
S1134CE09BE00E94AB5020E04FEF60E084E09BE04B
S1134CF00E94974D6AE072E284E09BE00E94F157C3
S1134D0020E040E060E084E09BE00E94AB4D80E264
S1134D10C82EE12CF12C00E010E020E030E0AE01E0
S1134D200D2E000C660B770B84E09BE00E94095764
S1134D3043CF203A31050CF077C0203F3105B4F061
S1134D4081319105ACF02C3341E034078CF4843488
S1134D509105D4F00BC0203A310544F02C3E3105C6
S1134D600CF0D0C1843491050CF4A4C137FD78C093
S1134D70883491050CF458C02C3431050CF065C00E
S1134D808B3791054CF16CC023E430E04BE351E0E8
S1134D9061E170E080EF90E0EBDD20E040E06FEF58
S1134DA084E09BE00E94974D03E410E02BE331E0A4
S1134DB041E150E060EF70E084E09BE00E94F94F35
S1134DC0C436D1050CF07CCFDC9EC001DD9E900D75
S1134DD01124EC01249674CF2AE730E04BE450E030
S1134DE068E470E080E090E0C3DD20E040E06FEF35
S1134DF084E09BE00E94974D0AE710E02BE430E04A
S1134E0048E450E060E070E084E09BE00E94F94FE9
S1134E10C436D1050CF054CFDC9EC001DD9E900D4C
S1134E201124EC0125964CCF203A3105CCF0203FDB
S1134E303105D4F48F3791050CF44AC02C3E31056A
S1134E40BCF4823B9105E4F0F4C12035310544F013
S1134E502C3931050CF083C18B3791050CF457C103
S1134E60203531050CF463C08F3791050CF46CC008
S1134E702C3931050CF057C0823B91056CF157C0B9
S1134E8021EB30E04BEE50E06FE770E080EA90E019
S1134E906FDD20E040E06FEF84E09BE00E94974DDF
S1134EA001EB10E02BEE30E04FE750E060EA70E0F9
S1134EB084E09BE00E94F94FC436D1050CF000CF8A
S1134EC0DC9EC001DD9E900D1124EC012996F8CEE4
S1134ED0203F3105CCF52BC021EB30E04BE950E00D
S1134EE06FE770E080E590E043DD20E040E06FEFA5
S1134EF084E09BE00E94974D01EB10E02BE930E049
S1134F004FE750E060E570E084E09BE00E94F94FD9
S1134F10C436D1050CF0D4CECE01D89EE001D99E82
S1134F20D00D1124CDCE203F31050CF09DC037FDAE
S1134F30C7CE8F3791050CF4C3CE2C34310534F42D
S1134F40823B910544F102C037FDBACE863B910500
S1134F500CF4B6CE2C3931050CF082C0893E910593
S1134F600CF0AECE28EE30E04BE950E066EB70E09A
S1134F7080E090E0FDDC20E040E06FEF84E09BE027
S1134F800E94974D08EE10E02BE930E046EB50E02C
S1134F9060E070E050C021EB30E04BE450E06FE79C
S1134FA070E080E090E0E4DC20E040E06FEF84E03B
S1134FB09BE00E94974D01EB10E02BE430E04FE7BB
S1134FC050E060E070E084E09BE00E94F94F1C1622
S1134FD01D060CF075CECE01B5010E94C259EB013D
S1134FE06FCE37FFAACF203A31050CF469CE863B49
S1134FF091050CF465CE203431400CF061CE893E2D
S113500091050CF05DCE28EE30E04FE351E066EB05
S113501070E080EA90E0ACDC20E040E06FEF84E0F8
S11350209BE00E94974D08EE10E02FE331E046EB41
S113503050E060EA70E084E09BE00E94F94F84E075
S11350409BE00E94FD4C7CD8CE01DF91CF911F9153
S11350500F91FF90EF90DF90CF90BF90AF900895A5
S1135060203A310544F62CCE2C3341E034070CF0C1
S11350706DCF823B91050CF0B4CF21EB30E04BE3D4
S113508051E06FE770E080EF90E072DC20E040E0F8
S11350906FEF84E09BE00E94974D01EB10E02BE35F
S11350A031E04FE750E060EF70E084E09BE00E9465
S11350B0F94F06CE23E430E04BEE50E061E170E0BE
S11350C080EA90E055DC20E040E06FEF84E09BE074
S11350D00E94974D03E410E02BEE30E041E150E0F4
S11350E060EA70E084E09BE00E94F94FC436D10589
S11350F00CF0E6CDDC9EC001DD9E900D1124EC0188
S11351002396DECD203F31050CF01DCE2FCE2AE7AD
S113511030E04BE950E068E470E080E590E028DCA2
S113512020E040E06FEF84E09BE00E94974D0AE7A7
S113513010E02BE930E048E450E060E570E084E002
S11351409BE00E94F94FC436D1050CF0B9CDDC9E2A
S1135150C001DD9E900D1124EC012696B1CD203ABC
S113516031050CF47DCE2C3E31055CF58B37910571
S11351709CF52AE730E04BEE50E068E470E080EA0A
S113518090E0F6DB20E040E06FEF84E09BE00E94DB
S1135190974D0AE710E02BEE30E048E450E060EA77
S11351A070E084E09BE00E94F94FC436D1050CF016
S11351B087CDDC9EC001DD9E900D1124EC01279665
S11351C07FCD203F310544F02C3341E034070CF00F
S11351D031CE8B3791052CF0203A31050CF440CEBA
S11351E029CE2AE730E04BE351E068E470E080EF39
S11351F090E0BEDB20E040E06FEF84E09BE00E94A3
S1135200974D0AE710E02BE331E048E450E060EF0B
S113521070E084E09BE00E94F94FC436D1050CF0A5
S11352204FCDDC9EC001DD9E900D1124EC0128962B
S113523047CD203531050CF47ACE1ACECF92DF92C9
S1135240EF92FF920F931F93CF93DF9300D000D080
S1135250CDB7DEB7082F10E02091440A3091450AFB
S1135260021713070CF022C1E82E8091420A909194
S1135270430A800F911F28E1F22EF89EF001F99E57
S1135280F00D1124E457FA4F80819181813091050A
S113529009F0C4C080913E0A90913F0A9C01225DAE
S11352A031092431310518F52FE2029FB001112490
S11352B09B012C5D3F4F645F7F4F45EE50E082EDD4
S11352C090E056DB8091420A9091430A800F911F2F
S11352D0F89EB001F99E700D1124FB01E457FA4FBA
S11352E08289938924893589821B930B29C09C0167
S11352F0245031402531310508F058C03FE2039F66
S1135300B00111249B012C5D3F4F645F7F4F48E146
S113531051E084E091E02CDB8091420A9091430AB1
S1135320800F911FF89EB001F99E700D1124FB01AE
S1135330E457FA4F2289338984899589820F931F10
S1135340938B828B68567A4FCE0101960E94A53DBD
S11353508091420A9091430A800F911FF89EF001B8
S1135360F99EF00D1124E457FA4FA801BE016F5FB6
S11353707F4F828993890E94AD1ECE0101960E94BF
S1135380113D8091420A9091430A080F191FF09E23
S1135390F001F19EF00D1124E457FA4F62897389EC
S11353A00688F789E02D8E0D199580C0865E9109D7
S11353B04E9708F07BC08FE2089FB00111249B0137
S11353C02C5D3F4F645F7F4F43E051E086EE90E0F9
S11353D0CFDA84E09BE00E94FD4C2091420A309198
S11353E0430A200F311FF29EC001F39E900D112439
S11353F0FC01E457FA4F6F0182899389FBDAF601C5
S1135400938B828B8091420A9091430A800F911F63
S1135410F89EB001F99E700D112494CF892B09F0E8
S113542045C0FFE20F9FB00111249B01225F3F4F53
S11354306E5D7F4F43E151E08FEF90E099DA809108
S1135440420A9091430A800F911FF89EB001F99E81
S1135450700D1124FB01E457FA4FD18481E0D82662
S1135460D18661577A4FCE0101960E94A53DA801CD
S11354706D2DCE0101960E94EB1DCE0101960E9476
S1135480113D8091420A9091430A080F191FF09E22
S1135490D001F19EB00D1124A457BA4F1A96ED9184
S11354A0FC911B9719966C918E0D199526960FB643
S11354B0F894DEBF0FBECDBFDF91CF911F910F9146
S11354C0FF90EF90DF90CF9008951F93CF93DF93D9
S11354D0EC01FB0160E177E20E94AE59462FCE0158
S11354E064E670E00E94AE59182F20E3260F84E68C
S11354F0489F2019112436EFCE0168EE73E00E9414
S1135500AE59349F600D1124639F200D1124208314
S1135510812F6AE00E94A259805D8183905D92830D
S11355201382DF91CF911F910895EF92FF921F9301
S1135530CF93DF93CDB7DEB7A4970FB6F894DEBF51
S11355400FBECDBF182F7B0197E0E7E0F2E0DE014C
S1135550119601900D929A95E1F7FE01389683E138
S1135560DF011D928A95E9F780E3810F8F83188606
S113557061E074E0CE0101960E944E5CBE016F5D55
S11355807F4FC701A2DFBE016F5D7F4FCE01019641
S11355900E944E5CBE016F5F7F4FCE014B960E940E
S11355A07C3DCE014B960E94DA1CCE014B960E94A4
S11355B0113DB8E11B02F0011124E457FA4F81E0D8
S11355C08283A4960FB6F894DEBF0FBECDBFDF91E1
S11355D0CF911F91FF90EF900895EF920F931F9337
S11355E084E09BE00E94FD4C86E090E09093410AA9
S11355F08093400A82E0E82E01ED13E020EF30E0D2
S113560044E650E068EC70E081E090E0C7D82FEF0A
S11356104FEF6FEF84E09BE00E94974D20E040E065
S113562060E084E09BE00E94AB4D6EEE7DE284E09E
S11356309BE00E94F15700E010E021E030E04EE0F2
S113564057E26FE074E084E09BE00E941D5604E2A0
S113565014E020EF30E04FE351E068EC70E088E7BD
S113566090E09CD820E040E06FEF84E09BE00E9453
S1135670974D04EB10E022E830E04CE350E06AE0A0
S113568070E084E09BE00E94AB5026E331E04CE301
S113569050E06EEB70E084E09BE00E94AB501F9101
S11356A00F91EF900895EF920F931F9384E09BE086
S11356B00E94FD4C87E090E09093410A8093400A59
S11356C082E0E82E01ED13E020EF30E044E650E004
S11356D068EC70E081E090E061D82FEF4FEF6FEF5E
S11356E084E09BE00E94974D20E040E060E084E08D
S11356F09BE00E94AB4D6EEE7DE284E09BE00E9455
S1135700F15700E010E021E030E04EE057E268EAB3
S113571073E084E09BE00E941D562CE330E048E7F0
S113572050E066E470E084E09BE00E94F24E20E0EA
S113573040E06FEF84E09BE00E94974D04EB10E0A3
S113574022E830E04CE350E06AE070E084E09BE063
S11357500E94AB5026E331E04CE350E06EEB70E086
S113576084E09BE00E94AB501F910F91EF9008954D
S11357700F931F93882381F010928B0581E090E0B2
S11357809093410A8093400A84E09BE00E94FD4C80
S11357901F910F910C94A02081E080938B0585E0EC
S11357A090E09093410A8093400A84E09BE00E9439
S11357B0FD4C2FEF4FEF6FEF84E09BE00E94974D7D
S11357C020E040E060E084E09BE00E94AB4D6AE0B2
S11357D072E284E09BE00E94F15700E010E026E9C9
S11357E030E04EE057E269E374E084E09BE00E941D
S11357F01D561F910F9108954F925F926F927F9261
S11358008F929F92AF92BF92CF92DF92EF92FF92CC
S11358100F931F93CF93DF9300D000D0CDB7DEB7A3
S113582089EC9AE00E947941882309F42DC489EC1B
S11358309AE00E94D63F89EC9AE00E9490419093AE
S11358403F0A80933E0A89EC9AE00E945742909363
S11358503D0A80933C0A2091400A3091410A211567
S1135860310509F433C22130310509F04FC12091CB
S11358703E0A30913F0AA901425251404F3151052D
S113588008F075C088379105C8F527E730E04FE385
S113589051E060E070E08CE291E06AD88091420AC5
S11358A09091430A1816190644F401979093430AF9
S11358B08093420A0E94A02013C020E040E06FEFD2
S11358C084E09BE00E94974D0FEE10E02FE331E05F
S11358D049E750E06CE271E084E09BE00E94F94FFC
S11358E020E040E06FEF84E09BE00E94974D07E7E3
S11358F010E02FE331E040E050E032C0AC01495702
S113590051094837510598F52FEE30E04FE351E047
S113591069E770E08CE291E02BD88091420A909183
S1135920430AAC014B5F5F4F2091440A3091450A12
S11359304217530744F401969093430A8093420A12
S11359400E94A020A1C320E040E06FEF84E09BE030
S11359500E94974D0FEE10E02FE331E049E750E04D
S11359606CE271E084E09BE00E94F94F8DC3A901D1
S11359704E5651094135510598F4AC01485C510922
S11359804B32510568F422EF30E043EB50E062ED16
S113599070E08AE890E00E94B8240E943F2274C319
S11359A0225831092333310570F48932910558F4B2
S11359B024E130E041E950E060E070E08FEA90E0FB
S11359C00E94B824D4C18F329105C8F580E036DC3A
S11359D00E94E019882319F020E04FEF02C02FEF56
S11359E040E060E084E09BE00E94974D20E04FEFB0
S11359F060E084E09BE00E94AB4D04E110E021E90B
S1135A0030E040E050E06FEA70E084E09BE00E9408
S1135A10464E20E040E060E084E09BE00E94974D29
S1135A206EE672E084E09BE00E94F15700E010E033
S1135A3023E030E04EE057E264EB73E062C09C0187
S1135A402D5231092F32310510F481E007C09C0139
S1135A502A5531092F32310518F482E0EFDB14C3E3
S1135A609C01275831092F32310510F483E0F6CF19
S1135A70845B91098F9708F007C384E0DFDB20E0A3
S1135A8040E06FEF84E09BE00E94974D02EF10E04E
S1135A9023EB30E042ED50E06AE870E084E09BE004
S1135AA00E94F94F20E440E460E484E09BE00E941B
S1135AB0974D01EF10E022EB30E043ED50E06BE84E
S1135AC070E084E09BE00E94464E2FEF4FEF6FEFB3
S1135AD084E09BE00E94974D6EEE7DE284E09BE0C3
S1135AE00E94F15720E440E460E484E09BE00E94DB
S1135AF0AB4D00E010E020EE30E04EE057E260EF06
S1135B0072E084E09BE00E941D56BEC22230310543
S1135B10C1F420913E0A30913F0A28513140283285
S1135B20310508F0B1C2825D9109819708F0ACC2D9
S1135B3022EF30E04FE351E062ED70E088E191E064
S1135B401CC02330310509F057C020913E0A309122
S1135B503F0AA901415051094436510588F4AC016A
S1135B60485C51094932510558F420EF30E044E6CD
S1135B7050E068EC70E081E090E00E94B824ACC092
S1135B80245131092931314008F07EC29C0124514D
S1135B9031092932310560F42CE330E04CE251E064
S1135BA064E170E084E190E00E94B82416DD6CC2E8
S1135BB09C01265431092932310560F42EE630E087
S1135BC04CE251E066E470E084E190E00E94B82485
S1135BD06ADD5AC288579109899708F055C220EAAC
S1135BE030E04CE251E068E770E084E190E00E942C
S1135BF0B82480E0BDDD48C22430310509F46CC00E
S1135C002530310509F091C00E941D3BD8D74B01C6
S1135C105C0128E748E768E784E09BE00E94974D31
S1135C2000E010E089EC9AE00E9479418823A9F110
S1135C3089EC9AE00E94D63F0E941D3B2B013C0157
S1135C4020E030E04AE753E4C501B401B4D66B0167
S1135C507C01C301B201B3D79B01AC01C701B601FA
S1135C600ED718160CF4C3C00115110509F0BFC0F6
S1135C7088E7C82ED12C90EAE92EF12C00E010E040
S1135C8020E431E040E050E060EA70E087EC9AE024
S1135C900E94105801E010E0C5CF0E941D3B2B016B
S1135CA03C0120E030E04AEF54E4C501B40183D65E
S1135CB06B017C01C301B20182D79B01AC01C70116
S1135CC0B601DDD618166CF010928B0581E090E0D9
S1135CD09093410A8093400A84E09BE00E94FD4C2B
S1135CE02FCE012B09F4D0C184E09BE00E94FD4C2F
